{
  "transactions": [
    {
      "hash": "0xc097a6f6b7c4b483344ebf301301ef2f6e67d3947307251beec4c97b6a218595",
      "transactionType": "CALL",
      "contractName": null,
      "contractAddress": "0xec95ecf950dc87eabfe4e01203bd1ae612b96695",
      "function": null,
      "arguments": null,
      "transaction": {
        "from": "0xf39fd6e51aad88f6f4ce6ab8827279cfffb92266",
        "to": "0xec95ecf950dc87eabfe4e01203bd1ae612b96695",
        "gas": "0x30341",
        "value": "0xde0b6b3a7640000",
        "input": "0x",
        "nonce": "0x72",
        "chainId": "0x104",
        "zksync": {
          "factoryDeps": [],
          "paymasterData": null
        }
      },
      "additionalContracts": [],
      "isFixedGasLimit": false
    },
    {
      "hash": "0xa3c4811edcd79f0378892942cbeff606922b1a739f5c82b183c1972fc4c926d3",
      "transactionType": "CALL",
      "contractName": null,
      "contractAddress": "0x984b3f7396adb964f930c41f63e31915958a5880",
      "function": null,
      "arguments": null,
      "transaction": {
        "from": "0xf39fd6e51aad88f6f4ce6ab8827279cfffb92266",
        "to": "0x984b3f7396adb964f930c41f63e31915958a5880",
        "gas": "0x30341",
        "value": "0xde0b6b3a7640000",
        "input": "0x",
        "nonce": "0x73",
        "chainId": "0x104",
        "zksync": {
          "factoryDeps": [],
          "paymasterData": null
        }
      },
      "additionalContracts": [],
      "isFixedGasLimit": false
    },
    {
      "hash": "0xb313d53c63c833122833e4962aeb84609357eea957d06914766eb359ec5a41bd",
      "transactionType": "CALL",
      "contractName": null,
      "contractAddress": "0x20f94979f6bcac2467b2e19b4aa7c9a824f9661e",
      "function": null,
      "arguments": null,
      "transaction": {
        "from": "0xf39fd6e51aad88f6f4ce6ab8827279cfffb92266",
        "to": "0x20f94979f6bcac2467b2e19b4aa7c9a824f9661e",
        "gas": "0x30341",
        "value": "0xde0b6b3a7640000",
        "input": "0x",
        "nonce": "0x74",
        "chainId": "0x104",
        "zksync": {
          "factoryDeps": [],
          "paymasterData": null
        }
      },
      "additionalContracts": [],
      "isFixedGasLimit": false
    },
    {
      "hash": "0xeba71e45b28dca438937a4b5448d9b5e02f7e1e3016601a2ebca5fdd93fea597",
      "transactionType": "CALL",
      "contractName": null,
      "contractAddress": "0x3a31d3c0450d7081be82bff70429bb4cd63b2550",
      "function": null,
      "arguments": null,
      "transaction": {
        "from": "0xf39fd6e51aad88f6f4ce6ab8827279cfffb92266",
        "to": "0x3a31d3c0450d7081be82bff70429bb4cd63b2550",
        "gas": "0x30341",
        "value": "0xde0b6b3a7640000",
        "input": "0x",
        "nonce": "0x75",
        "chainId": "0x104",
        "zksync": {
          "factoryDeps": [],
          "paymasterData": null
        }
      },
      "additionalContracts": [],
      "isFixedGasLimit": false
    },
    {
      "hash": "0x0a61b30f2ba0646c014b31b40a2c447d8d7e6c40db9931a56cfaa6543b08698b",
      "transactionType": "CALL",
      "contractName": null,
      "contractAddress": "0xe3dc3c1e11d76eee701b2d8f11cf0fffda111a0a",
      "function": null,
      "arguments": null,
      "transaction": {
        "from": "0xf39fd6e51aad88f6f4ce6ab8827279cfffb92266",
        "to": "0xe3dc3c1e11d76eee701b2d8f11cf0fffda111a0a",
        "gas": "0x30341",
        "value": "0xde0b6b3a7640000",
        "input": "0x",
        "nonce": "0x76",
        "chainId": "0x104",
        "zksync": {
          "factoryDeps": [],
          "paymasterData": null
        }
      },
      "additionalContracts": [],
      "isFixedGasLimit": false
    },
    {
      "hash": "0x7982bca104331300afc70ec79136c1211ca857d28636f86cf1966f1529529927",
      "transactionType": "CALL",
      "contractName": null,
      "contractAddress": "0x588758d8a0ad1162a6294f3c274753137e664ae0",
      "function": "unstakeNFT(uint256)",
      "arguments": [
        "1"
      ],
      "transaction": {
        "from": "0xec95ecf950dc87eabfe4e01203bd1ae612b96695",
        "to": "0x588758d8a0ad1162a6294f3c274753137e664ae0",
        "gas": "0x459ec",
        "value": "0x0",
        "input": "0xc1dfa0bb0000000000000000000000000000000000000000000000000000000000000001",
        "nonce": "0x9",
        "chainId": "0x104",
        "zksync": {
          "factoryDeps": [],
          "paymasterData": null
        }
      },
      "additionalContracts": [],
      "isFixedGasLimit": false
    },
    {
      "hash": "0xd1837f1891650af758426971351a489977b1423e45528c13c177f4749fcb0806",
      "transactionType": "CALL",
      "contractName": null,
      "contractAddress": "0x588758d8a0ad1162a6294f3c274753137e664ae0",
      "function": "unstakeNFT(uint256)",
      "arguments": [
        "2"
      ],
      "transaction": {
        "from": "0xec95ecf950dc87eabfe4e01203bd1ae612b96695",
        "to": "0x588758d8a0ad1162a6294f3c274753137e664ae0",
        "gas": "0x459ec",
        "value": "0x0",
        "input": "0xc1dfa0bb0000000000000000000000000000000000000000000000000000000000000002",
        "nonce": "0xa",
        "chainId": "0x104",
        "zksync": {
          "factoryDeps": [],
          "paymasterData": null
        }
      },
      "additionalContracts": [],
      "isFixedGasLimit": false
    },
    {
      "hash": "0x8530e63cd84d49ce79cab0a673bff99ed90ea267e461d659b5eba25af8726c3e",
      "transactionType": "CALL",
      "contractName": null,
      "contractAddress": "0x588758d8a0ad1162a6294f3c274753137e664ae0",
      "function": "unstakeNFT(uint256)",
      "arguments": [
        "3"
      ],
      "transaction": {
        "from": "0xec95ecf950dc87eabfe4e01203bd1ae612b96695",
        "to": "0x588758d8a0ad1162a6294f3c274753137e664ae0",
        "gas": "0x459ec",
        "value": "0x0",
        "input": "0xc1dfa0bb0000000000000000000000000000000000000000000000000000000000000003",
        "nonce": "0xb",
        "chainId": "0x104",
        "zksync": {
          "factoryDeps": [],
          "paymasterData": null
        }
      },
      "additionalContracts": [],
      "isFixedGasLimit": false
    },
    {
      "hash": "0xf1ba88f2c8ea83ba80dfedbb47b653644957583e9518cca46cca4458569bcf83",
      "transactionType": "CALL",
      "contractName": null,
      "contractAddress": "0x588758d8a0ad1162a6294f3c274753137e664ae0",
      "function": "unstakeNFT(uint256)",
      "arguments": [
        "6"
      ],
      "transaction": {
        "from": "0x984b3f7396adb964f930c41f63e31915958a5880",
        "to": "0x588758d8a0ad1162a6294f3c274753137e664ae0",
        "gas": "0x459ec",
        "value": "0x0",
        "input": "0xc1dfa0bb0000000000000000000000000000000000000000000000000000000000000006",
        "nonce": "0x9",
        "chainId": "0x104",
        "zksync": {
          "factoryDeps": [],
          "paymasterData": null
        }
      },
      "additionalContracts": [],
      "isFixedGasLimit": false
    },
    {
      "hash": "0x912584f7f61ba239f3a4a6ec0d9c90dac8f1faa4bebe27d387956f7840b5d617",
      "transactionType": "CALL",
      "contractName": null,
      "contractAddress": "0x588758d8a0ad1162a6294f3c274753137e664ae0",
      "function": "unstakeNFT(uint256)",
      "arguments": [
        "7"
      ],
      "transaction": {
        "from": "0x984b3f7396adb964f930c41f63e31915958a5880",
        "to": "0x588758d8a0ad1162a6294f3c274753137e664ae0",
        "gas": "0x459ec",
        "value": "0x0",
        "input": "0xc1dfa0bb0000000000000000000000000000000000000000000000000000000000000007",
        "nonce": "0xa",
        "chainId": "0x104",
        "zksync": {
          "factoryDeps": [],
          "paymasterData": null
        }
      },
      "additionalContracts": [],
      "isFixedGasLimit": false
    },
    {
      "hash": "0x73b4b5754a9bb7bc3764c39ac83a5a8837ac822ca5fea8d5da620afa1fbd3182",
      "transactionType": "CALL",
      "contractName": null,
      "contractAddress": "0x588758d8a0ad1162a6294f3c274753137e664ae0",
      "function": "unstakeNFT(uint256)",
      "arguments": [
        "8"
      ],
      "transaction": {
        "from": "0x984b3f7396adb964f930c41f63e31915958a5880",
        "to": "0x588758d8a0ad1162a6294f3c274753137e664ae0",
        "gas": "0x459ec",
        "value": "0x0",
        "input": "0xc1dfa0bb0000000000000000000000000000000000000000000000000000000000000008",
        "nonce": "0xb",
        "chainId": "0x104",
        "zksync": {
          "factoryDeps": [],
          "paymasterData": null
        }
      },
      "additionalContracts": [],
      "isFixedGasLimit": false
    },
    {
      "hash": "0x49e3bec11fdf5de93427b7fbc7b834a7f4cdc421645120ba34b1378eb3b3aa46",
      "transactionType": "CALL",
      "contractName": null,
      "contractAddress": "0x588758d8a0ad1162a6294f3c274753137e664ae0",
      "function": "unstakeNFT(uint256)",
      "arguments": [
        "11"
      ],
      "transaction": {
        "from": "0x20f94979f6bcac2467b2e19b4aa7c9a824f9661e",
        "to": "0x588758d8a0ad1162a6294f3c274753137e664ae0",
        "gas": "0x459ec",
        "value": "0x0",
        "input": "0xc1dfa0bb000000000000000000000000000000000000000000000000000000000000000b",
        "nonce": "0x9",
        "chainId": "0x104",
        "zksync": {
          "factoryDeps": [],
          "paymasterData": null
        }
      },
      "additionalContracts": [],
      "isFixedGasLimit": false
    },
    {
      "hash": "0x5871992539643d7225813ad91194f76fcdc9e4dee19d0e580ce9578d3f641a75",
      "transactionType": "CALL",
      "contractName": null,
      "contractAddress": "0x588758d8a0ad1162a6294f3c274753137e664ae0",
      "function": "unstakeNFT(uint256)",
      "arguments": [
        "12"
      ],
      "transaction": {
        "from": "0x20f94979f6bcac2467b2e19b4aa7c9a824f9661e",
        "to": "0x588758d8a0ad1162a6294f3c274753137e664ae0",
        "gas": "0x459ec",
        "value": "0x0",
        "input": "0xc1dfa0bb000000000000000000000000000000000000000000000000000000000000000c",
        "nonce": "0xa",
        "chainId": "0x104",
        "zksync": {
          "factoryDeps": [],
          "paymasterData": null
        }
      },
      "additionalContracts": [],
      "isFixedGasLimit": false
    },
    {
      "hash": "0xff0e2e0e93d3e078303d470f42924bc0a6b0c08e63035d90250a01be3d9b3001",
      "transactionType": "CALL",
      "contractName": null,
      "contractAddress": "0x588758d8a0ad1162a6294f3c274753137e664ae0",
      "function": "unstakeNFT(uint256)",
      "arguments": [
        "13"
      ],
      "transaction": {
        "from": "0x20f94979f6bcac2467b2e19b4aa7c9a824f9661e",
        "to": "0x588758d8a0ad1162a6294f3c274753137e664ae0",
        "gas": "0x459ec",
        "value": "0x0",
        "input": "0xc1dfa0bb000000000000000000000000000000000000000000000000000000000000000d",
        "nonce": "0xb",
        "chainId": "0x104",
        "zksync": {
          "factoryDeps": [],
          "paymasterData": null
        }
      },
      "additionalContracts": [],
      "isFixedGasLimit": false
    },
    {
      "hash": "0xe581992b96278766407ea96d87f5d52d582fce411324cb71e8ab17f53c499ed9",
      "transactionType": "CALL",
      "contractName": null,
      "contractAddress": "0x588758d8a0ad1162a6294f3c274753137e664ae0",
      "function": "unstakeNFT(uint256)",
      "arguments": [
        "16"
      ],
      "transaction": {
        "from": "0x3a31d3c0450d7081be82bff70429bb4cd63b2550",
        "to": "0x588758d8a0ad1162a6294f3c274753137e664ae0",
        "gas": "0x459ec",
        "value": "0x0",
        "input": "0xc1dfa0bb0000000000000000000000000000000000000000000000000000000000000010",
        "nonce": "0x9",
        "chainId": "0x104",
        "zksync": {
          "factoryDeps": [],
          "paymasterData": null
        }
      },
      "additionalContracts": [],
      "isFixedGasLimit": false
    },
    {
      "hash": "0x46b824c28686529cd1633ca33712c02e9b1331315bde36a65344b400b61de2ed",
      "transactionType": "CALL",
      "contractName": null,
      "contractAddress": "0x588758d8a0ad1162a6294f3c274753137e664ae0",
      "function": "unstakeNFT(uint256)",
      "arguments": [
        "17"
      ],
      "transaction": {
        "from": "0x3a31d3c0450d7081be82bff70429bb4cd63b2550",
        "to": "0x588758d8a0ad1162a6294f3c274753137e664ae0",
        "gas": "0x459ec",
        "value": "0x0",
        "input": "0xc1dfa0bb0000000000000000000000000000000000000000000000000000000000000011",
        "nonce": "0xa",
        "chainId": "0x104",
        "zksync": {
          "factoryDeps": [],
          "paymasterData": null
        }
      },
      "additionalContracts": [],
      "isFixedGasLimit": false
    },
    {
      "hash": "0xb997f2ab1234946ae2a3c17907023332725b9a56b01d15620d96d57758357c95",
      "transactionType": "CALL",
      "contractName": null,
      "contractAddress": "0x588758d8a0ad1162a6294f3c274753137e664ae0",
      "function": "unstakeNFT(uint256)",
      "arguments": [
        "18"
      ],
      "transaction": {
        "from": "0x3a31d3c0450d7081be82bff70429bb4cd63b2550",
        "to": "0x588758d8a0ad1162a6294f3c274753137e664ae0",
        "gas": "0x459ec",
        "value": "0x0",
        "input": "0xc1dfa0bb0000000000000000000000000000000000000000000000000000000000000012",
        "nonce": "0xb",
        "chainId": "0x104",
        "zksync": {
          "factoryDeps": [],
          "paymasterData": null
        }
      },
      "additionalContracts": [],
      "isFixedGasLimit": false
    },
    {
      "hash": "0xb2a4507eecd6e1a44f1735c012abb51852ba5c2cbd970472d23c2e25e3d2be20",
      "transactionType": "CALL",
      "contractName": null,
      "contractAddress": "0x588758d8a0ad1162a6294f3c274753137e664ae0",
      "function": "unstakeNFT(uint256)",
      "arguments": [
        "21"
      ],
      "transaction": {
        "from": "0xe3dc3c1e11d76eee701b2d8f11cf0fffda111a0a",
        "to": "0x588758d8a0ad1162a6294f3c274753137e664ae0",
        "gas": "0x459ec",
        "value": "0x0",
        "input": "0xc1dfa0bb0000000000000000000000000000000000000000000000000000000000000015",
        "nonce": "0x9",
        "chainId": "0x104",
        "zksync": {
          "factoryDeps": [],
          "paymasterData": null
        }
      },
      "additionalContracts": [],
      "isFixedGasLimit": false
    },
    {
      "hash": "0x728bedc71fd15bb47ac62929da5c4bdfed9887e5b6903c3c24a37ff4efcf4891",
      "transactionType": "CALL",
      "contractName": null,
      "contractAddress": "0x588758d8a0ad1162a6294f3c274753137e664ae0",
      "function": "unstakeNFT(uint256)",
      "arguments": [
        "22"
      ],
      "transaction": {
        "from": "0xe3dc3c1e11d76eee701b2d8f11cf0fffda111a0a",
        "to": "0x588758d8a0ad1162a6294f3c274753137e664ae0",
        "gas": "0x459ec",
        "value": "0x0",
        "input": "0xc1dfa0bb0000000000000000000000000000000000000000000000000000000000000016",
        "nonce": "0xa",
        "chainId": "0x104",
        "zksync": {
          "factoryDeps": [],
          "paymasterData": null
        }
      },
      "additionalContracts": [],
      "isFixedGasLimit": false
    }
  ],
  "receipts": [
    {
      "status": "0x1",
      "cumulativeGasUsed": "0x0",
      "logs": [
        {
          "address": "0x000000000000000000000000000000000000800a",
          "topics": [
            "0xddf252ad1be2c89b69c2b068fc378daa952ba7f163c4a11628f55a4df523b3ef",
            "0x000000000000000000000000f39fd6e51aad88f6f4ce6ab8827279cfffb92266",
            "0x0000000000000000000000000000000000000000000000000000000000008001"
          ],
          "data": "0x00000000000000000000000000000000000000000000000000000b5a7e929da0",
          "blockHash": "0x7347f744e8c7f612e5cba251d9cb259b1908a7794eb3e95893c83816f5786afb",
          "blockNumber": "0x150",
          "blockTimestamp": "0x83d6529",
          "transactionHash": "0xc097a6f6b7c4b483344ebf301301ef2f6e67d3947307251beec4c97b6a218595",
          "transactionIndex": "0x0",
          "logIndex": "0x0",
          "removed": false
        },
        {
          "address": "0x000000000000000000000000000000000000800a",
          "topics": [
            "0xddf252ad1be2c89b69c2b068fc378daa952ba7f163c4a11628f55a4df523b3ef",
            "0x000000000000000000000000f39fd6e51aad88f6f4ce6ab8827279cfffb92266",
            "0x000000000000000000000000ec95ecf950dc87eabfe4e01203bd1ae612b96695"
          ],
          "data": "0x0000000000000000000000000000000000000000000000000de0b6b3a7640000",
          "blockHash": "0x7347f744e8c7f612e5cba251d9cb259b1908a7794eb3e95893c83816f5786afb",
          "blockNumber": "0x150",
          "blockTimestamp": "0x83d6529",
          "transactionHash": "0xc097a6f6b7c4b483344ebf301301ef2f6e67d3947307251beec4c97b6a218595",
          "transactionIndex": "0x0",
          "logIndex": "0x1",
          "removed": false
        },
        {
          "address": "0x000000000000000000000000000000000000800a",
          "topics": [
            "0xddf252ad1be2c89b69c2b068fc378daa952ba7f163c4a11628f55a4df523b3ef",
            "0x0000000000000000000000000000000000000000000000000000000000008001",
            "0x000000000000000000000000f39fd6e51aad88f6f4ce6ab8827279cfffb92266"
          ],
          "data": "0x000000000000000000000000000000000000000000000000000004441e70dbc0",
          "blockHash": "0x7347f744e8c7f612e5cba251d9cb259b1908a7794eb3e95893c83816f5786afb",
          "blockNumber": "0x150",
          "blockTimestamp": "0x83d6529",
          "transactionHash": "0xc097a6f6b7c4b483344ebf301301ef2f6e67d3947307251beec4c97b6a218595",
          "transactionIndex": "0x0",
          "logIndex": "0x2",
          "removed": false
        }
      ],
      "logsBloom": "0x00000000000000000000000000000000000000000000000000000000000000000000000000000000000000000000000000000000000000000000000000000000000000000000000000000000000000000000000000000000000000000000000000000000000000000000000000000000000000000000000000000000000000000000000000000000000000000000000000000000000000000000000000000000000000000000000000000000000000000000000000000000000000000000000000000000000000000000000000000000000000000000000000000000000000000000000000000000000000000000000000000000000000000000000000000000",
      "type": "0x71",
      "transactionHash": "0xc097a6f6b7c4b483344ebf301301ef2f6e67d3947307251beec4c97b6a218595",
      "transactionIndex": "0x0",
      "blockHash": "0x7347f744e8c7f612e5cba251d9cb259b1908a7794eb3e95893c83816f5786afb",
      "blockNumber": "0x150",
      "gasUsed": "0x2a0b6",
      "effectiveGasPrice": "0x2b275d0",
      "from": "0xf39fd6e51aad88f6f4ce6ab8827279cfffb92266",
      "to": "0xec95ecf950dc87eabfe4e01203bd1ae612b96695",
      "contractAddress": null,
      "l1BatchNumber": "0xb1",
      "l1BatchTxIndex": null,
      "l2ToL1Logs": []
    },
    {
      "status": "0x1",
      "cumulativeGasUsed": "0x0",
      "logs": [
        {
          "address": "0x000000000000000000000000000000000000800a",
          "topics": [
            "0xddf252ad1be2c89b69c2b068fc378daa952ba7f163c4a11628f55a4df523b3ef",
            "0x000000000000000000000000f39fd6e51aad88f6f4ce6ab8827279cfffb92266",
            "0x0000000000000000000000000000000000000000000000000000000000008001"
          ],
          "data": "0x00000000000000000000000000000000000000000000000000000b5a7e929da0",
          "blockHash": "0xe9e428a9601c22a3efbb0f8f8c7f2ec4ee0174173d8504baf4f57873002e0de7",
          "blockNumber": "0x152",
          "blockTimestamp": "0x83d652b",
          "transactionHash": "0xa3c4811edcd79f0378892942cbeff606922b1a739f5c82b183c1972fc4c926d3",
          "transactionIndex": "0x0",
          "logIndex": "0x0",
          "removed": false
        },
        {
          "address": "0x000000000000000000000000000000000000800a",
          "topics": [
            "0xddf252ad1be2c89b69c2b068fc378daa952ba7f163c4a11628f55a4df523b3ef",
            "0x000000000000000000000000f39fd6e51aad88f6f4ce6ab8827279cfffb92266",
            "0x000000000000000000000000984b3f7396adb964f930c41f63e31915958a5880"
          ],
          "data": "0x0000000000000000000000000000000000000000000000000de0b6b3a7640000",
          "blockHash": "0xe9e428a9601c22a3efbb0f8f8c7f2ec4ee0174173d8504baf4f57873002e0de7",
          "blockNumber": "0x152",
          "blockTimestamp": "0x83d652b",
          "transactionHash": "0xa3c4811edcd79f0378892942cbeff606922b1a739f5c82b183c1972fc4c926d3",
          "transactionIndex": "0x0",
          "logIndex": "0x1",
          "removed": false
        },
        {
          "address": "0x000000000000000000000000000000000000800a",
          "topics": [
            "0xddf252ad1be2c89b69c2b068fc378daa952ba7f163c4a11628f55a4df523b3ef",
            "0x0000000000000000000000000000000000000000000000000000000000008001",
            "0x000000000000000000000000f39fd6e51aad88f6f4ce6ab8827279cfffb92266"
          ],
          "data": "0x000000000000000000000000000000000000000000000000000004441e70dbc0",
          "blockHash": "0xe9e428a9601c22a3efbb0f8f8c7f2ec4ee0174173d8504baf4f57873002e0de7",
          "blockNumber": "0x152",
          "blockTimestamp": "0x83d652b",
          "transactionHash": "0xa3c4811edcd79f0378892942cbeff606922b1a739f5c82b183c1972fc4c926d3",
          "transactionIndex": "0x0",
          "logIndex": "0x2",
          "removed": false
        }
      ],
      "logsBloom": "0x00000000000000000000000000000000000000000000000000000000000000000000000000000000000000000000000000000000000000000000000000000000000000000000000000000000000000000000000000000000000000000000000000000000000000000000000000000000000000000000000000000000000000000000000000000000000000000000000000000000000000000000000000000000000000000000000000000000000000000000000000000000000000000000000000000000000000000000000000000000000000000000000000000000000000000000000000000000000000000000000000000000000000000000000000000000",
      "type": "0x71",
      "transactionHash": "0xa3c4811edcd79f0378892942cbeff606922b1a739f5c82b183c1972fc4c926d3",
      "transactionIndex": "0x0",
      "blockHash": "0xe9e428a9601c22a3efbb0f8f8c7f2ec4ee0174173d8504baf4f57873002e0de7",
      "blockNumber": "0x152",
      "gasUsed": "0x2a0b6",
      "effectiveGasPrice": "0x2b275d0",
      "from": "0xf39fd6e51aad88f6f4ce6ab8827279cfffb92266",
      "to": "0x984b3f7396adb964f930c41f63e31915958a5880",
      "contractAddress": null,
      "l1BatchNumber": "0xb2",
      "l1BatchTxIndex": null,
      "l2ToL1Logs": []
    },
    {
      "status": "0x1",
      "cumulativeGasUsed": "0x0",
      "logs": [
        {
          "address": "0x000000000000000000000000000000000000800a",
          "topics": [
            "0xddf252ad1be2c89b69c2b068fc378daa952ba7f163c4a11628f55a4df523b3ef",
            "0x000000000000000000000000f39fd6e51aad88f6f4ce6ab8827279cfffb92266",
            "0x0000000000000000000000000000000000000000000000000000000000008001"
          ],
          "data": "0x00000000000000000000000000000000000000000000000000000b5a7e929da0",
          "blockHash": "0x8b133118e6f0a9578df22d1c2ea16f5e100599f2b3a9565a1eb9568269da9879",
          "blockNumber": "0x154",
          "blockTimestamp": "0x83d652d",
          "transactionHash": "0xb313d53c63c833122833e4962aeb84609357eea957d06914766eb359ec5a41bd",
          "transactionIndex": "0x0",
          "logIndex": "0x0",
          "removed": false
        },
        {
          "address": "0x000000000000000000000000000000000000800a",
          "topics": [
            "0xddf252ad1be2c89b69c2b068fc378daa952ba7f163c4a11628f55a4df523b3ef",
            "0x000000000000000000000000f39fd6e51aad88f6f4ce6ab8827279cfffb92266",
            "0x00000000000000000000000020f94979f6bcac2467b2e19b4aa7c9a824f9661e"
          ],
          "data": "0x0000000000000000000000000000000000000000000000000de0b6b3a7640000",
          "blockHash": "0x8b133118e6f0a9578df22d1c2ea16f5e100599f2b3a9565a1eb9568269da9879",
          "blockNumber": "0x154",
          "blockTimestamp": "0x83d652d",
          "transactionHash": "0xb313d53c63c833122833e4962aeb84609357eea957d06914766eb359ec5a41bd",
          "transactionIndex": "0x0",
          "logIndex": "0x1",
          "removed": false
        },
        {
          "address": "0x000000000000000000000000000000000000800a",
          "topics": [
            "0xddf252ad1be2c89b69c2b068fc378daa952ba7f163c4a11628f55a4df523b3ef",
            "0x0000000000000000000000000000000000000000000000000000000000008001",
            "0x000000000000000000000000f39fd6e51aad88f6f4ce6ab8827279cfffb92266"
          ],
          "data": "0x000000000000000000000000000000000000000000000000000004441e70dbc0",
          "blockHash": "0x8b133118e6f0a9578df22d1c2ea16f5e100599f2b3a9565a1eb9568269da9879",
          "blockNumber": "0x154",
          "blockTimestamp": "0x83d652d",
          "transactionHash": "0xb313d53c63c833122833e4962aeb84609357eea957d06914766eb359ec5a41bd",
          "transactionIndex": "0x0",
          "logIndex": "0x2",
          "removed": false
        }
      ],
      "logsBloom": "0x00000000000000000000000000000000000000000000000000000000000000000000000000000000000000000000000000000000000000000000000000000000000000000000000000000000000000000000000000000000000000000000000000000000000000000000000000000000000000000000000000000000000000000000000000000000000000000000000000000000000000000000000000000000000000000000000000000000000000000000000000000000000000000000000000000000000000000000000000000000000000000000000000000000000000000000000000000000000000000000000000000000000000000000000000000000",
      "type": "0x71",
      "transactionHash": "0xb313d53c63c833122833e4962aeb84609357eea957d06914766eb359ec5a41bd",
      "transactionIndex": "0x0",
      "blockHash": "0x8b133118e6f0a9578df22d1c2ea16f5e100599f2b3a9565a1eb9568269da9879",
      "blockNumber": "0x154",
      "gasUsed": "0x2a0b6",
      "effectiveGasPrice": "0x2b275d0",
      "from": "0xf39fd6e51aad88f6f4ce6ab8827279cfffb92266",
      "to": "0x20f94979f6bcac2467b2e19b4aa7c9a824f9661e",
      "contractAddress": null,
      "l1BatchNumber": "0xb3",
      "l1BatchTxIndex": null,
      "l2ToL1Logs": []
    },
    {
      "status": "0x1",
      "cumulativeGasUsed": "0x0",
      "logs": [
        {
          "address": "0x000000000000000000000000000000000000800a",
          "topics": [
            "0xddf252ad1be2c89b69c2b068fc378daa952ba7f163c4a11628f55a4df523b3ef",
            "0x000000000000000000000000f39fd6e51aad88f6f4ce6ab8827279cfffb92266",
            "0x0000000000000000000000000000000000000000000000000000000000008001"
          ],
          "data": "0x00000000000000000000000000000000000000000000000000000b5a7e929da0",
          "blockHash": "0x476a7f3f99dc16f0810995f513eaeb25fbd43b9565867d7d376d2eed47481ad6",
          "blockNumber": "0x156",
          "blockTimestamp": "0x83d652f",
          "transactionHash": "0xeba71e45b28dca438937a4b5448d9b5e02f7e1e3016601a2ebca5fdd93fea597",
          "transactionIndex": "0x0",
          "logIndex": "0x0",
          "removed": false
        },
        {
          "address": "0x000000000000000000000000000000000000800a",
          "topics": [
            "0xddf252ad1be2c89b69c2b068fc378daa952ba7f163c4a11628f55a4df523b3ef",
            "0x000000000000000000000000f39fd6e51aad88f6f4ce6ab8827279cfffb92266",
            "0x0000000000000000000000003a31d3c0450d7081be82bff70429bb4cd63b2550"
          ],
          "data": "0x0000000000000000000000000000000000000000000000000de0b6b3a7640000",
          "blockHash": "0x476a7f3f99dc16f0810995f513eaeb25fbd43b9565867d7d376d2eed47481ad6",
          "blockNumber": "0x156",
          "blockTimestamp": "0x83d652f",
          "transactionHash": "0xeba71e45b28dca438937a4b5448d9b5e02f7e1e3016601a2ebca5fdd93fea597",
          "transactionIndex": "0x0",
          "logIndex": "0x1",
          "removed": false
        },
        {
          "address": "0x000000000000000000000000000000000000800a",
          "topics": [
            "0xddf252ad1be2c89b69c2b068fc378daa952ba7f163c4a11628f55a4df523b3ef",
            "0x0000000000000000000000000000000000000000000000000000000000008001",
            "0x000000000000000000000000f39fd6e51aad88f6f4ce6ab8827279cfffb92266"
          ],
          "data": "0x000000000000000000000000000000000000000000000000000004441e70dbc0",
          "blockHash": "0x476a7f3f99dc16f0810995f513eaeb25fbd43b9565867d7d376d2eed47481ad6",
          "blockNumber": "0x156",
          "blockTimestamp": "0x83d652f",
          "transactionHash": "0xeba71e45b28dca438937a4b5448d9b5e02f7e1e3016601a2ebca5fdd93fea597",
          "transactionIndex": "0x0",
          "logIndex": "0x2",
          "removed": false
        }
      ],
      "logsBloom": "0x00000000000000000000000000000000000000000000000000000000000000000000000000000000000000000000000000000000000000000000000000000000000000000000000000000000000000000000000000000000000000000000000000000000000000000000000000000000000000000000000000000000000000000000000000000000000000000000000000000000000000000000000000000000000000000000000000000000000000000000000000000000000000000000000000000000000000000000000000000000000000000000000000000000000000000000000000000000000000000000000000000000000000000000000000000000",
      "type": "0x71",
      "transactionHash": "0xeba71e45b28dca438937a4b5448d9b5e02f7e1e3016601a2ebca5fdd93fea597",
      "transactionIndex": "0x0",
      "blockHash": "0x476a7f3f99dc16f0810995f513eaeb25fbd43b9565867d7d376d2eed47481ad6",
      "blockNumber": "0x156",
      "gasUsed": "0x2a0b6",
      "effectiveGasPrice": "0x2b275d0",
      "from": "0xf39fd6e51aad88f6f4ce6ab8827279cfffb92266",
      "to": "0x3a31d3c0450d7081be82bff70429bb4cd63b2550",
      "contractAddress": null,
      "l1BatchNumber": "0xb4",
      "l1BatchTxIndex": null,
      "l2ToL1Logs": []
    },
    {
      "status": "0x1",
      "cumulativeGasUsed": "0x0",
      "logs": [
        {
          "address": "0x000000000000000000000000000000000000800a",
          "topics": [
            "0xddf252ad1be2c89b69c2b068fc378daa952ba7f163c4a11628f55a4df523b3ef",
            "0x000000000000000000000000f39fd6e51aad88f6f4ce6ab8827279cfffb92266",
            "0x0000000000000000000000000000000000000000000000000000000000008001"
          ],
          "data": "0x00000000000000000000000000000000000000000000000000000b5a7e929da0",
          "blockHash": "0x28f77e7f4a3dd62d1479633e005f0cafc9d8b44314bf4b1c959921c6b736e320",
          "blockNumber": "0x158",
          "blockTimestamp": "0x83d6531",
          "transactionHash": "0x0a61b30f2ba0646c014b31b40a2c447d8d7e6c40db9931a56cfaa6543b08698b",
          "transactionIndex": "0x0",
          "logIndex": "0x0",
          "removed": false
        },
        {
          "address": "0x000000000000000000000000000000000000800a",
          "topics": [
            "0xddf252ad1be2c89b69c2b068fc378daa952ba7f163c4a11628f55a4df523b3ef",
            "0x000000000000000000000000f39fd6e51aad88f6f4ce6ab8827279cfffb92266",
            "0x000000000000000000000000e3dc3c1e11d76eee701b2d8f11cf0fffda111a0a"
          ],
          "data": "0x0000000000000000000000000000000000000000000000000de0b6b3a7640000",
          "blockHash": "0x28f77e7f4a3dd62d1479633e005f0cafc9d8b44314bf4b1c959921c6b736e320",
          "blockNumber": "0x158",
          "blockTimestamp": "0x83d6531",
          "transactionHash": "0x0a61b30f2ba0646c014b31b40a2c447d8d7e6c40db9931a56cfaa6543b08698b",
          "transactionIndex": "0x0",
          "logIndex": "0x1",
          "removed": false
        },
        {
          "address": "0x000000000000000000000000000000000000800a",
          "topics": [
            "0xddf252ad1be2c89b69c2b068fc378daa952ba7f163c4a11628f55a4df523b3ef",
            "0x0000000000000000000000000000000000000000000000000000000000008001",
            "0x000000000000000000000000f39fd6e51aad88f6f4ce6ab8827279cfffb92266"
          ],
          "data": "0x000000000000000000000000000000000000000000000000000004441e70dbc0",
          "blockHash": "0x28f77e7f4a3dd62d1479633e005f0cafc9d8b44314bf4b1c959921c6b736e320",
          "blockNumber": "0x158",
          "blockTimestamp": "0x83d6531",
          "transactionHash": "0x0a61b30f2ba0646c014b31b40a2c447d8d7e6c40db9931a56cfaa6543b08698b",
          "transactionIndex": "0x0",
          "logIndex": "0x2",
          "removed": false
        }
      ],
      "logsBloom": "0x00000000000000000000000000000000000000000000000000000000000000000000000000000000000000000000000000000000000000000000000000000000000000000000000000000000000000000000000000000000000000000000000000000000000000000000000000000000000000000000000000000000000000000000000000000000000000000000000000000000000000000000000000000000000000000000000000000000000000000000000000000000000000000000000000000000000000000000000000000000000000000000000000000000000000000000000000000000000000000000000000000000000000000000000000000000",
      "type": "0x71",
      "transactionHash": "0x0a61b30f2ba0646c014b31b40a2c447d8d7e6c40db9931a56cfaa6543b08698b",
      "transactionIndex": "0x0",
      "blockHash": "0x28f77e7f4a3dd62d1479633e005f0cafc9d8b44314bf4b1c959921c6b736e320",
      "blockNumber": "0x158",
      "gasUsed": "0x2a0b6",
      "effectiveGasPrice": "0x2b275d0",
      "from": "0xf39fd6e51aad88f6f4ce6ab8827279cfffb92266",
      "to": "0xe3dc3c1e11d76eee701b2d8f11cf0fffda111a0a",
      "contractAddress": null,
      "l1BatchNumber": "0xb5",
      "l1BatchTxIndex": null,
      "l2ToL1Logs": []
    },
    {
      "status": "0x1",
      "cumulativeGasUsed": "0x0",
      "logs": [
        {
          "address": "0x000000000000000000000000000000000000800a",
          "topics": [
            "0xddf252ad1be2c89b69c2b068fc378daa952ba7f163c4a11628f55a4df523b3ef",
            "0x000000000000000000000000ec95ecf950dc87eabfe4e01203bd1ae612b96695",
            "0x0000000000000000000000000000000000000000000000000000000000008001"
          ],
          "data": "0x00000000000000000000000000000000000000000000000000001270d3ea8840",
          "blockHash": "0x05ce0af15f7feb9b39871769177fded0386c2e45f38f6a781060de4bac3879dc",
          "blockNumber": "0x15a",
          "blockTimestamp": "0x83d6533",
          "transactionHash": "0x7982bca104331300afc70ec79136c1211ca857d28636f86cf1966f1529529927",
          "transactionIndex": "0x0",
          "logIndex": "0x0",
          "removed": false
        },
        {
          "address": "0x6b828bcb33305478cd7d27eb323f5c5b7b4afdbe",
          "topics": [
            "0xddf252ad1be2c89b69c2b068fc378daa952ba7f163c4a11628f55a4df523b3ef",
            "0x000000000000000000000000588758d8a0ad1162a6294f3c274753137e664ae0",
            "0x000000000000000000000000ec95ecf950dc87eabfe4e01203bd1ae612b96695",
            "0x0000000000000000000000000000000000000000000000000000000000000001"
          ],
          "data": "0x",
          "blockHash": "0x05ce0af15f7feb9b39871769177fded0386c2e45f38f6a781060de4bac3879dc",
          "blockNumber": "0x15a",
          "blockTimestamp": "0x83d6533",
          "transactionHash": "0x7982bca104331300afc70ec79136c1211ca857d28636f86cf1966f1529529927",
          "transactionIndex": "0x0",
          "logIndex": "0x1",
          "removed": false
        },
        {
          "address": "0x588758d8a0ad1162a6294f3c274753137e664ae0",
          "topics": [
            "0x4b34672eb24ce98c72f4076298fdbbdcb32840898472c48fb957997ca84f2e57",
            "0x0000000000000000000000006b828bcb33305478cd7d27eb323f5c5b7b4afdbe",
            "0x0000000000000000000000000000000000000000000000000000000000000001",
            "0x000000000000000000000000ec95ecf950dc87eabfe4e01203bd1ae612b96695"
          ],
          "data": "0x0000000000000000000000000000000000000000000000000000000000000001",
          "blockHash": "0x05ce0af15f7feb9b39871769177fded0386c2e45f38f6a781060de4bac3879dc",
          "blockNumber": "0x15a",
          "blockTimestamp": "0x83d6533",
          "transactionHash": "0x7982bca104331300afc70ec79136c1211ca857d28636f86cf1966f1529529927",
          "transactionIndex": "0x0",
          "logIndex": "0x2",
          "removed": false
        },
        {
          "address": "0x000000000000000000000000000000000000800a",
          "topics": [
            "0xddf252ad1be2c89b69c2b068fc378daa952ba7f163c4a11628f55a4df523b3ef",
            "0x0000000000000000000000000000000000000000000000000000000000008001",
            "0x000000000000000000000000ec95ecf950dc87eabfe4e01203bd1ae612b96695"
          ],
          "data": "0x000000000000000000000000000000000000000000000000000007a3c8bea140",
          "blockHash": "0x05ce0af15f7feb9b39871769177fded0386c2e45f38f6a781060de4bac3879dc",
          "blockNumber": "0x15a",
          "blockTimestamp": "0x83d6533",
          "transactionHash": "0x7982bca104331300afc70ec79136c1211ca857d28636f86cf1966f1529529927",
          "transactionIndex": "0x0",
          "logIndex": "0x3",
          "removed": false
        }
      ],
      "logsBloom": "0x00000000000000000000000000000000000000000000000000000000000000000000000000000000000000000000000000000000000000000000000000000000000000000000000000000000000000000000000000000000000000000000000000000000000000000000000000000000000000000000000000000000000000000000000000000000000000000000000000000000000000000000000000000000000000000000000000000000000000000000000000000000000000000000000000000000000000000000000000000000000000000000000000000000000000000000000000000000000000000000000000000000000000000000000000000000",
      "type": "0x71",
      "transactionHash": "0x7982bca104331300afc70ec79136c1211ca857d28636f86cf1966f1529529927",
      "transactionIndex": "0x0",
      "blockHash": "0x05ce0af15f7feb9b39871769177fded0386c2e45f38f6a781060de4bac3879dc",
      "blockNumber": "0x15a",
      "gasUsed": "0x40130",
      "effectiveGasPrice": "0x2b275d0",
      "from": "0xec95ecf950dc87eabfe4e01203bd1ae612b96695",
      "to": "0x588758d8a0ad1162a6294f3c274753137e664ae0",
      "contractAddress": null,
      "l1BatchNumber": "0xb6",
      "l1BatchTxIndex": null,
      "l2ToL1Logs": []
    },
    {
      "status": "0x1",
      "cumulativeGasUsed": "0x0",
      "logs": [
        {
          "address": "0x000000000000000000000000000000000000800a",
          "topics": [
            "0xddf252ad1be2c89b69c2b068fc378daa952ba7f163c4a11628f55a4df523b3ef",
            "0x000000000000000000000000ec95ecf950dc87eabfe4e01203bd1ae612b96695",
            "0x0000000000000000000000000000000000000000000000000000000000008001"
          ],
          "data": "0x00000000000000000000000000000000000000000000000000001270d3ea8840",
          "blockHash": "0x00ef8b262fda6cd72530c7d40b57bbc8420c936faed3ba00b621d770f4e7e13e",
          "blockNumber": "0x15c",
          "blockTimestamp": "0x83d6535",
          "transactionHash": "0xd1837f1891650af758426971351a489977b1423e45528c13c177f4749fcb0806",
          "transactionIndex": "0x0",
          "logIndex": "0x0",
          "removed": false
        },
        {
          "address": "0x6b828bcb33305478cd7d27eb323f5c5b7b4afdbe",
          "topics": [
            "0xddf252ad1be2c89b69c2b068fc378daa952ba7f163c4a11628f55a4df523b3ef",
            "0x000000000000000000000000588758d8a0ad1162a6294f3c274753137e664ae0",
            "0x000000000000000000000000ec95ecf950dc87eabfe4e01203bd1ae612b96695",
            "0x0000000000000000000000000000000000000000000000000000000000000002"
          ],
          "data": "0x",
          "blockHash": "0x00ef8b262fda6cd72530c7d40b57bbc8420c936faed3ba00b621d770f4e7e13e",
          "blockNumber": "0x15c",
          "blockTimestamp": "0x83d6535",
          "transactionHash": "0xd1837f1891650af758426971351a489977b1423e45528c13c177f4749fcb0806",
          "transactionIndex": "0x0",
          "logIndex": "0x1",
          "removed": false
        },
        {
          "address": "0x588758d8a0ad1162a6294f3c274753137e664ae0",
          "topics": [
            "0x4b34672eb24ce98c72f4076298fdbbdcb32840898472c48fb957997ca84f2e57",
            "0x0000000000000000000000006b828bcb33305478cd7d27eb323f5c5b7b4afdbe",
            "0x0000000000000000000000000000000000000000000000000000000000000002",
            "0x000000000000000000000000ec95ecf950dc87eabfe4e01203bd1ae612b96695"
          ],
          "data": "0x0000000000000000000000000000000000000000000000000000000000000002",
          "blockHash": "0x00ef8b262fda6cd72530c7d40b57bbc8420c936faed3ba00b621d770f4e7e13e",
          "blockNumber": "0x15c",
          "blockTimestamp": "0x83d6535",
          "transactionHash": "0xd1837f1891650af758426971351a489977b1423e45528c13c177f4749fcb0806",
          "transactionIndex": "0x0",
          "logIndex": "0x2",
          "removed": false
        },
        {
          "address": "0x000000000000000000000000000000000000800a",
          "topics": [
            "0xddf252ad1be2c89b69c2b068fc378daa952ba7f163c4a11628f55a4df523b3ef",
            "0x0000000000000000000000000000000000000000000000000000000000008001",
            "0x000000000000000000000000ec95ecf950dc87eabfe4e01203bd1ae612b96695"
          ],
          "data": "0x000000000000000000000000000000000000000000000000000007a3c8bea140",
          "blockHash": "0x00ef8b262fda6cd72530c7d40b57bbc8420c936faed3ba00b621d770f4e7e13e",
          "blockNumber": "0x15c",
          "blockTimestamp": "0x83d6535",
          "transactionHash": "0xd1837f1891650af758426971351a489977b1423e45528c13c177f4749fcb0806",
          "transactionIndex": "0x0",
          "logIndex": "0x3",
          "removed": false
        }
      ],
      "logsBloom": "0x00000000000000000000000000000000000000000000000000000000000000000000000000000000000000000000000000000000000000000000000000000000000000000000000000000000000000000000000000000000000000000000000000000000000000000000000000000000000000000000000000000000000000000000000000000000000000000000000000000000000000000000000000000000000000000000000000000000000000000000000000000000000000000000000000000000000000000000000000000000000000000000000000000000000000000000000000000000000000000000000000000000000000000000000000000000",
      "type": "0x71",
      "transactionHash": "0xd1837f1891650af758426971351a489977b1423e45528c13c177f4749fcb0806",
      "transactionIndex": "0x0",
      "blockHash": "0x00ef8b262fda6cd72530c7d40b57bbc8420c936faed3ba00b621d770f4e7e13e",
      "blockNumber": "0x15c",
      "gasUsed": "0x40130",
      "effectiveGasPrice": "0x2b275d0",
      "from": "0xec95ecf950dc87eabfe4e01203bd1ae612b96695",
      "to": "0x588758d8a0ad1162a6294f3c274753137e664ae0",
      "contractAddress": null,
      "l1BatchNumber": "0xb7",
      "l1BatchTxIndex": null,
      "l2ToL1Logs": []
    },
    {
      "status": "0x1",
      "cumulativeGasUsed": "0x0",
      "logs": [
        {
          "address": "0x000000000000000000000000000000000000800a",
          "topics": [
            "0xddf252ad1be2c89b69c2b068fc378daa952ba7f163c4a11628f55a4df523b3ef",
            "0x000000000000000000000000ec95ecf950dc87eabfe4e01203bd1ae612b96695",
            "0x0000000000000000000000000000000000000000000000000000000000008001"
          ],
          "data": "0x00000000000000000000000000000000000000000000000000001270d3ea8840",
          "blockHash": "0xf032b1655b794a74820194e418a569a2389ef8e651c29a3d6bb8edbdb564049b",
          "blockNumber": "0x15e",
          "blockTimestamp": "0x83d6537",
          "transactionHash": "0x8530e63cd84d49ce79cab0a673bff99ed90ea267e461d659b5eba25af8726c3e",
          "transactionIndex": "0x0",
          "logIndex": "0x0",
          "removed": false
        },
        {
          "address": "0x6b828bcb33305478cd7d27eb323f5c5b7b4afdbe",
          "topics": [
            "0xddf252ad1be2c89b69c2b068fc378daa952ba7f163c4a11628f55a4df523b3ef",
            "0x000000000000000000000000588758d8a0ad1162a6294f3c274753137e664ae0",
            "0x000000000000000000000000ec95ecf950dc87eabfe4e01203bd1ae612b96695",
            "0x0000000000000000000000000000000000000000000000000000000000000003"
          ],
          "data": "0x",
          "blockHash": "0xf032b1655b794a74820194e418a569a2389ef8e651c29a3d6bb8edbdb564049b",
          "blockNumber": "0x15e",
          "blockTimestamp": "0x83d6537",
          "transactionHash": "0x8530e63cd84d49ce79cab0a673bff99ed90ea267e461d659b5eba25af8726c3e",
          "transactionIndex": "0x0",
          "logIndex": "0x1",
          "removed": false
        },
        {
          "address": "0x588758d8a0ad1162a6294f3c274753137e664ae0",
          "topics": [
            "0x4b34672eb24ce98c72f4076298fdbbdcb32840898472c48fb957997ca84f2e57",
            "0x0000000000000000000000006b828bcb33305478cd7d27eb323f5c5b7b4afdbe",
            "0x0000000000000000000000000000000000000000000000000000000000000003",
            "0x000000000000000000000000ec95ecf950dc87eabfe4e01203bd1ae612b96695"
          ],
          "data": "0x0000000000000000000000000000000000000000000000000000000000000003",
          "blockHash": "0xf032b1655b794a74820194e418a569a2389ef8e651c29a3d6bb8edbdb564049b",
          "blockNumber": "0x15e",
          "blockTimestamp": "0x83d6537",
          "transactionHash": "0x8530e63cd84d49ce79cab0a673bff99ed90ea267e461d659b5eba25af8726c3e",
          "transactionIndex": "0x0",
          "logIndex": "0x2",
          "removed": false
        },
        {
          "address": "0x000000000000000000000000000000000000800a",
          "topics": [
            "0xddf252ad1be2c89b69c2b068fc378daa952ba7f163c4a11628f55a4df523b3ef",
            "0x0000000000000000000000000000000000000000000000000000000000008001",
            "0x000000000000000000000000ec95ecf950dc87eabfe4e01203bd1ae612b96695"
          ],
          "data": "0x000000000000000000000000000000000000000000000000000007a3c8bea140",
          "blockHash": "0xf032b1655b794a74820194e418a569a2389ef8e651c29a3d6bb8edbdb564049b",
          "blockNumber": "0x15e",
          "blockTimestamp": "0x83d6537",
          "transactionHash": "0x8530e63cd84d49ce79cab0a673bff99ed90ea267e461d659b5eba25af8726c3e",
          "transactionIndex": "0x0",
          "logIndex": "0x3",
          "removed": false
        }
      ],
      "logsBloom": "0x00000000000000000000000000000000000000000000000000000000000000000000000000000000000000000000000000000000000000000000000000000000000000000000000000000000000000000000000000000000000000000000000000000000000000000000000000000000000000000000000000000000000000000000000000000000000000000000000000000000000000000000000000000000000000000000000000000000000000000000000000000000000000000000000000000000000000000000000000000000000000000000000000000000000000000000000000000000000000000000000000000000000000000000000000000000",
      "type": "0x71",
      "transactionHash": "0x8530e63cd84d49ce79cab0a673bff99ed90ea267e461d659b5eba25af8726c3e",
      "transactionIndex": "0x0",
      "blockHash": "0xf032b1655b794a74820194e418a569a2389ef8e651c29a3d6bb8edbdb564049b",
      "blockNumber": "0x15e",
      "gasUsed": "0x40130",
      "effectiveGasPrice": "0x2b275d0",
      "from": "0xec95ecf950dc87eabfe4e01203bd1ae612b96695",
      "to": "0x588758d8a0ad1162a6294f3c274753137e664ae0",
      "contractAddress": null,
      "l1BatchNumber": "0xb8",
      "l1BatchTxIndex": null,
      "l2ToL1Logs": []
    },
    {
      "status": "0x1",
      "cumulativeGasUsed": "0x0",
      "logs": [
        {
          "address": "0x000000000000000000000000000000000000800a",
          "topics": [
            "0xddf252ad1be2c89b69c2b068fc378daa952ba7f163c4a11628f55a4df523b3ef",
            "0x000000000000000000000000984b3f7396adb964f930c41f63e31915958a5880",
            "0x0000000000000000000000000000000000000000000000000000000000008001"
          ],
          "data": "0x00000000000000000000000000000000000000000000000000001270d3ea8840",
          "blockHash": "0x4939ed843cc65682078d9d5675ef769c6ea4ea2a5c848a8eac3e7313d7135244",
          "blockNumber": "0x160",
          "blockTimestamp": "0x83d6539",
          "transactionHash": "0xf1ba88f2c8ea83ba80dfedbb47b653644957583e9518cca46cca4458569bcf83",
          "transactionIndex": "0x0",
          "logIndex": "0x0",
          "removed": false
        },
        {
          "address": "0x6b828bcb33305478cd7d27eb323f5c5b7b4afdbe",
          "topics": [
            "0xddf252ad1be2c89b69c2b068fc378daa952ba7f163c4a11628f55a4df523b3ef",
            "0x000000000000000000000000588758d8a0ad1162a6294f3c274753137e664ae0",
            "0x000000000000000000000000984b3f7396adb964f930c41f63e31915958a5880",
            "0x0000000000000000000000000000000000000000000000000000000000000004"
          ],
          "data": "0x",
          "blockHash": "0x4939ed843cc65682078d9d5675ef769c6ea4ea2a5c848a8eac3e7313d7135244",
          "blockNumber": "0x160",
          "blockTimestamp": "0x83d6539",
          "transactionHash": "0xf1ba88f2c8ea83ba80dfedbb47b653644957583e9518cca46cca4458569bcf83",
          "transactionIndex": "0x0",
          "logIndex": "0x1",
          "removed": false
        },
        {
          "address": "0x588758d8a0ad1162a6294f3c274753137e664ae0",
          "topics": [
            "0x4b34672eb24ce98c72f4076298fdbbdcb32840898472c48fb957997ca84f2e57",
            "0x0000000000000000000000006b828bcb33305478cd7d27eb323f5c5b7b4afdbe",
            "0x0000000000000000000000000000000000000000000000000000000000000004",
            "0x000000000000000000000000984b3f7396adb964f930c41f63e31915958a5880"
          ],
          "data": "0x0000000000000000000000000000000000000000000000000000000000000006",
          "blockHash": "0x4939ed843cc65682078d9d5675ef769c6ea4ea2a5c848a8eac3e7313d7135244",
          "blockNumber": "0x160",
          "blockTimestamp": "0x83d6539",
          "transactionHash": "0xf1ba88f2c8ea83ba80dfedbb47b653644957583e9518cca46cca4458569bcf83",
          "transactionIndex": "0x0",
          "logIndex": "0x2",
          "removed": false
        },
        {
          "address": "0x000000000000000000000000000000000000800a",
          "topics": [
            "0xddf252ad1be2c89b69c2b068fc378daa952ba7f163c4a11628f55a4df523b3ef",
            "0x0000000000000000000000000000000000000000000000000000000000008001",
            "0x000000000000000000000000984b3f7396adb964f930c41f63e31915958a5880"
          ],
          "data": "0x000000000000000000000000000000000000000000000000000007a3c8bea140",
          "blockHash": "0x4939ed843cc65682078d9d5675ef769c6ea4ea2a5c848a8eac3e7313d7135244",
          "blockNumber": "0x160",
          "blockTimestamp": "0x83d6539",
          "transactionHash": "0xf1ba88f2c8ea83ba80dfedbb47b653644957583e9518cca46cca4458569bcf83",
          "transactionIndex": "0x0",
          "logIndex": "0x3",
          "removed": false
        }
      ],
      "logsBloom": "0x00000000000000000000000000000000000000000000000000000000000000000000000000000000000000000000000000000000000000000000000000000000000000000000000000000000000000000000000000000000000000000000000000000000000000000000000000000000000000000000000000000000000000000000000000000000000000000000000000000000000000000000000000000000000000000000000000000000000000000000000000000000000000000000000000000000000000000000000000000000000000000000000000000000000000000000000000000000000000000000000000000000000000000000000000000000",
      "type": "0x71",
      "transactionHash": "0xf1ba88f2c8ea83ba80dfedbb47b653644957583e9518cca46cca4458569bcf83",
      "transactionIndex": "0x0",
      "blockHash": "0x4939ed843cc65682078d9d5675ef769c6ea4ea2a5c848a8eac3e7313d7135244",
      "blockNumber": "0x160",
      "gasUsed": "0x40130",
      "effectiveGasPrice": "0x2b275d0",
      "from": "0x984b3f7396adb964f930c41f63e31915958a5880",
      "to": "0x588758d8a0ad1162a6294f3c274753137e664ae0",
      "contractAddress": null,
      "l1BatchNumber": "0xb9",
      "l1BatchTxIndex": null,
      "l2ToL1Logs": []
    },
    {
      "status": "0x1",
      "cumulativeGasUsed": "0x0",
      "logs": [
        {
          "address": "0x000000000000000000000000000000000000800a",
          "topics": [
            "0xddf252ad1be2c89b69c2b068fc378daa952ba7f163c4a11628f55a4df523b3ef",
            "0x000000000000000000000000984b3f7396adb964f930c41f63e31915958a5880",
            "0x0000000000000000000000000000000000000000000000000000000000008001"
          ],
          "data": "0x00000000000000000000000000000000000000000000000000001270d3ea8840",
          "blockHash": "0x10b65f7dcea4b5449088e6440bac0980cbbfdd071f4c4b9c12cd2ee3070cdf0c",
          "blockNumber": "0x162",
          "blockTimestamp": "0x83d653b",
          "transactionHash": "0x912584f7f61ba239f3a4a6ec0d9c90dac8f1faa4bebe27d387956f7840b5d617",
          "transactionIndex": "0x0",
          "logIndex": "0x0",
          "removed": false
        },
        {
          "address": "0x6b828bcb33305478cd7d27eb323f5c5b7b4afdbe",
          "topics": [
            "0xddf252ad1be2c89b69c2b068fc378daa952ba7f163c4a11628f55a4df523b3ef",
            "0x000000000000000000000000588758d8a0ad1162a6294f3c274753137e664ae0",
            "0x000000000000000000000000984b3f7396adb964f930c41f63e31915958a5880",
            "0x0000000000000000000000000000000000000000000000000000000000000005"
          ],
          "data": "0x",
          "blockHash": "0x10b65f7dcea4b5449088e6440bac0980cbbfdd071f4c4b9c12cd2ee3070cdf0c",
          "blockNumber": "0x162",
          "blockTimestamp": "0x83d653b",
          "transactionHash": "0x912584f7f61ba239f3a4a6ec0d9c90dac8f1faa4bebe27d387956f7840b5d617",
          "transactionIndex": "0x0",
          "logIndex": "0x1",
          "removed": false
        },
        {
          "address": "0x588758d8a0ad1162a6294f3c274753137e664ae0",
          "topics": [
            "0x4b34672eb24ce98c72f4076298fdbbdcb32840898472c48fb957997ca84f2e57",
            "0x0000000000000000000000006b828bcb33305478cd7d27eb323f5c5b7b4afdbe",
            "0x0000000000000000000000000000000000000000000000000000000000000005",
            "0x000000000000000000000000984b3f7396adb964f930c41f63e31915958a5880"
          ],
          "data": "0x0000000000000000000000000000000000000000000000000000000000000007",
          "blockHash": "0x10b65f7dcea4b5449088e6440bac0980cbbfdd071f4c4b9c12cd2ee3070cdf0c",
          "blockNumber": "0x162",
          "blockTimestamp": "0x83d653b",
          "transactionHash": "0x912584f7f61ba239f3a4a6ec0d9c90dac8f1faa4bebe27d387956f7840b5d617",
          "transactionIndex": "0x0",
          "logIndex": "0x2",
          "removed": false
        },
        {
          "address": "0x000000000000000000000000000000000000800a",
          "topics": [
            "0xddf252ad1be2c89b69c2b068fc378daa952ba7f163c4a11628f55a4df523b3ef",
            "0x0000000000000000000000000000000000000000000000000000000000008001",
            "0x000000000000000000000000984b3f7396adb964f930c41f63e31915958a5880"
          ],
          "data": "0x000000000000000000000000000000000000000000000000000007a3c8bea140",
          "blockHash": "0x10b65f7dcea4b5449088e6440bac0980cbbfdd071f4c4b9c12cd2ee3070cdf0c",
          "blockNumber": "0x162",
          "blockTimestamp": "0x83d653b",
          "transactionHash": "0x912584f7f61ba239f3a4a6ec0d9c90dac8f1faa4bebe27d387956f7840b5d617",
          "transactionIndex": "0x0",
          "logIndex": "0x3",
          "removed": false
        }
      ],
      "logsBloom": "0x00000000000000000000000000000000000000000000000000000000000000000000000000000000000000000000000000000000000000000000000000000000000000000000000000000000000000000000000000000000000000000000000000000000000000000000000000000000000000000000000000000000000000000000000000000000000000000000000000000000000000000000000000000000000000000000000000000000000000000000000000000000000000000000000000000000000000000000000000000000000000000000000000000000000000000000000000000000000000000000000000000000000000000000000000000000",
      "type": "0x71",
      "transactionHash": "0x912584f7f61ba239f3a4a6ec0d9c90dac8f1faa4bebe27d387956f7840b5d617",
      "transactionIndex": "0x0",
      "blockHash": "0x10b65f7dcea4b5449088e6440bac0980cbbfdd071f4c4b9c12cd2ee3070cdf0c",
      "blockNumber": "0x162",
      "gasUsed": "0x40130",
      "effectiveGasPrice": "0x2b275d0",
      "from": "0x984b3f7396adb964f930c41f63e31915958a5880",
      "to": "0x588758d8a0ad1162a6294f3c274753137e664ae0",
      "contractAddress": null,
      "l1BatchNumber": "0xba",
      "l1BatchTxIndex": null,
      "l2ToL1Logs": []
    },
    {
      "status": "0x1",
      "cumulativeGasUsed": "0x0",
      "logs": [
        {
          "address": "0x000000000000000000000000000000000000800a",
          "topics": [
            "0xddf252ad1be2c89b69c2b068fc378daa952ba7f163c4a11628f55a4df523b3ef",
            "0x000000000000000000000000984b3f7396adb964f930c41f63e31915958a5880",
            "0x0000000000000000000000000000000000000000000000000000000000008001"
          ],
          "data": "0x00000000000000000000000000000000000000000000000000001270d3ea8840",
          "blockHash": "0x9e4e815352d7599d3551a803370bcccfa57789a21e57d08712683a427f19558d",
          "blockNumber": "0x164",
          "blockTimestamp": "0x83d653d",
          "transactionHash": "0x73b4b5754a9bb7bc3764c39ac83a5a8837ac822ca5fea8d5da620afa1fbd3182",
          "transactionIndex": "0x0",
          "logIndex": "0x0",
          "removed": false
        },
        {
          "address": "0x6b828bcb33305478cd7d27eb323f5c5b7b4afdbe",
          "topics": [
            "0xddf252ad1be2c89b69c2b068fc378daa952ba7f163c4a11628f55a4df523b3ef",
            "0x000000000000000000000000588758d8a0ad1162a6294f3c274753137e664ae0",
            "0x000000000000000000000000984b3f7396adb964f930c41f63e31915958a5880",
            "0x0000000000000000000000000000000000000000000000000000000000000006"
          ],
          "data": "0x",
          "blockHash": "0x9e4e815352d7599d3551a803370bcccfa57789a21e57d08712683a427f19558d",
          "blockNumber": "0x164",
          "blockTimestamp": "0x83d653d",
          "transactionHash": "0x73b4b5754a9bb7bc3764c39ac83a5a8837ac822ca5fea8d5da620afa1fbd3182",
          "transactionIndex": "0x0",
          "logIndex": "0x1",
          "removed": false
        },
        {
          "address": "0x588758d8a0ad1162a6294f3c274753137e664ae0",
          "topics": [
            "0x4b34672eb24ce98c72f4076298fdbbdcb32840898472c48fb957997ca84f2e57",
            "0x0000000000000000000000006b828bcb33305478cd7d27eb323f5c5b7b4afdbe",
            "0x0000000000000000000000000000000000000000000000000000000000000006",
            "0x000000000000000000000000984b3f7396adb964f930c41f63e31915958a5880"
          ],
          "data": "0x0000000000000000000000000000000000000000000000000000000000000008",
          "blockHash": "0x9e4e815352d7599d3551a803370bcccfa57789a21e57d08712683a427f19558d",
          "blockNumber": "0x164",
          "blockTimestamp": "0x83d653d",
          "transactionHash": "0x73b4b5754a9bb7bc3764c39ac83a5a8837ac822ca5fea8d5da620afa1fbd3182",
          "transactionIndex": "0x0",
          "logIndex": "0x2",
          "removed": false
        },
        {
          "address": "0x000000000000000000000000000000000000800a",
          "topics": [
            "0xddf252ad1be2c89b69c2b068fc378daa952ba7f163c4a11628f55a4df523b3ef",
            "0x0000000000000000000000000000000000000000000000000000000000008001",
            "0x000000000000000000000000984b3f7396adb964f930c41f63e31915958a5880"
          ],
          "data": "0x000000000000000000000000000000000000000000000000000007a3c8bea140",
          "blockHash": "0x9e4e815352d7599d3551a803370bcccfa57789a21e57d08712683a427f19558d",
          "blockNumber": "0x164",
          "blockTimestamp": "0x83d653d",
          "transactionHash": "0x73b4b5754a9bb7bc3764c39ac83a5a8837ac822ca5fea8d5da620afa1fbd3182",
          "transactionIndex": "0x0",
          "logIndex": "0x3",
          "removed": false
        }
      ],
      "logsBloom": "0x00000000000000000000000000000000000000000000000000000000000000000000000000000000000000000000000000000000000000000000000000000000000000000000000000000000000000000000000000000000000000000000000000000000000000000000000000000000000000000000000000000000000000000000000000000000000000000000000000000000000000000000000000000000000000000000000000000000000000000000000000000000000000000000000000000000000000000000000000000000000000000000000000000000000000000000000000000000000000000000000000000000000000000000000000000000",
      "type": "0x71",
      "transactionHash": "0x73b4b5754a9bb7bc3764c39ac83a5a8837ac822ca5fea8d5da620afa1fbd3182",
      "transactionIndex": "0x0",
      "blockHash": "0x9e4e815352d7599d3551a803370bcccfa57789a21e57d08712683a427f19558d",
      "blockNumber": "0x164",
      "gasUsed": "0x40130",
      "effectiveGasPrice": "0x2b275d0",
      "from": "0x984b3f7396adb964f930c41f63e31915958a5880",
      "to": "0x588758d8a0ad1162a6294f3c274753137e664ae0",
      "contractAddress": null,
      "l1BatchNumber": "0xbb",
      "l1BatchTxIndex": null,
      "l2ToL1Logs": []
    },
    {
      "status": "0x1",
      "cumulativeGasUsed": "0x0",
      "logs": [
        {
          "address": "0x000000000000000000000000000000000000800a",
          "topics": [
            "0xddf252ad1be2c89b69c2b068fc378daa952ba7f163c4a11628f55a4df523b3ef",
            "0x00000000000000000000000020f94979f6bcac2467b2e19b4aa7c9a824f9661e",
            "0x0000000000000000000000000000000000000000000000000000000000008001"
          ],
          "data": "0x00000000000000000000000000000000000000000000000000001270d3ea8840",
          "blockHash": "0x52a5f90cb7e7982b17d94ee58e5b7bb6448888f8bf8165809a818686839ed1d9",
          "blockNumber": "0x166",
          "blockTimestamp": "0x83d653f",
          "transactionHash": "0x49e3bec11fdf5de93427b7fbc7b834a7f4cdc421645120ba34b1378eb3b3aa46",
          "transactionIndex": "0x0",
          "logIndex": "0x0",
          "removed": false
        },
        {
          "address": "0x6b828bcb33305478cd7d27eb323f5c5b7b4afdbe",
          "topics": [
            "0xddf252ad1be2c89b69c2b068fc378daa952ba7f163c4a11628f55a4df523b3ef",
            "0x000000000000000000000000588758d8a0ad1162a6294f3c274753137e664ae0",
            "0x00000000000000000000000020f94979f6bcac2467b2e19b4aa7c9a824f9661e",
            "0x0000000000000000000000000000000000000000000000000000000000000007"
          ],
          "data": "0x",
          "blockHash": "0x52a5f90cb7e7982b17d94ee58e5b7bb6448888f8bf8165809a818686839ed1d9",
          "blockNumber": "0x166",
          "blockTimestamp": "0x83d653f",
          "transactionHash": "0x49e3bec11fdf5de93427b7fbc7b834a7f4cdc421645120ba34b1378eb3b3aa46",
          "transactionIndex": "0x0",
          "logIndex": "0x1",
          "removed": false
        },
        {
          "address": "0x588758d8a0ad1162a6294f3c274753137e664ae0",
          "topics": [
            "0x4b34672eb24ce98c72f4076298fdbbdcb32840898472c48fb957997ca84f2e57",
            "0x0000000000000000000000006b828bcb33305478cd7d27eb323f5c5b7b4afdbe",
            "0x0000000000000000000000000000000000000000000000000000000000000007",
            "0x00000000000000000000000020f94979f6bcac2467b2e19b4aa7c9a824f9661e"
          ],
          "data": "0x000000000000000000000000000000000000000000000000000000000000000b",
          "blockHash": "0x52a5f90cb7e7982b17d94ee58e5b7bb6448888f8bf8165809a818686839ed1d9",
          "blockNumber": "0x166",
          "blockTimestamp": "0x83d653f",
          "transactionHash": "0x49e3bec11fdf5de93427b7fbc7b834a7f4cdc421645120ba34b1378eb3b3aa46",
          "transactionIndex": "0x0",
          "logIndex": "0x2",
          "removed": false
        },
        {
          "address": "0x000000000000000000000000000000000000800a",
          "topics": [
            "0xddf252ad1be2c89b69c2b068fc378daa952ba7f163c4a11628f55a4df523b3ef",
            "0x0000000000000000000000000000000000000000000000000000000000008001",
            "0x00000000000000000000000020f94979f6bcac2467b2e19b4aa7c9a824f9661e"
          ],
          "data": "0x000000000000000000000000000000000000000000000000000007a3c8bea140",
          "blockHash": "0x52a5f90cb7e7982b17d94ee58e5b7bb6448888f8bf8165809a818686839ed1d9",
          "blockNumber": "0x166",
          "blockTimestamp": "0x83d653f",
          "transactionHash": "0x49e3bec11fdf5de93427b7fbc7b834a7f4cdc421645120ba34b1378eb3b3aa46",
          "transactionIndex": "0x0",
          "logIndex": "0x3",
          "removed": false
        }
      ],
      "logsBloom": "0x00000000000000000000000000000000000000000000000000000000000000000000000000000000000000000000000000000000000000000000000000000000000000000000000000000000000000000000000000000000000000000000000000000000000000000000000000000000000000000000000000000000000000000000000000000000000000000000000000000000000000000000000000000000000000000000000000000000000000000000000000000000000000000000000000000000000000000000000000000000000000000000000000000000000000000000000000000000000000000000000000000000000000000000000000000000",
      "type": "0x71",
      "transactionHash": "0x49e3bec11fdf5de93427b7fbc7b834a7f4cdc421645120ba34b1378eb3b3aa46",
      "transactionIndex": "0x0",
      "blockHash": "0x52a5f90cb7e7982b17d94ee58e5b7bb6448888f8bf8165809a818686839ed1d9",
      "blockNumber": "0x166",
      "gasUsed": "0x40130",
      "effectiveGasPrice": "0x2b275d0",
      "from": "0x20f94979f6bcac2467b2e19b4aa7c9a824f9661e",
      "to": "0x588758d8a0ad1162a6294f3c274753137e664ae0",
      "contractAddress": null,
      "l1BatchNumber": "0xbc",
      "l1BatchTxIndex": null,
      "l2ToL1Logs": []
    },
    {
      "status": "0x1",
      "cumulativeGasUsed": "0x0",
      "logs": [
        {
          "address": "0x000000000000000000000000000000000000800a",
          "topics": [
            "0xddf252ad1be2c89b69c2b068fc378daa952ba7f163c4a11628f55a4df523b3ef",
            "0x00000000000000000000000020f94979f6bcac2467b2e19b4aa7c9a824f9661e",
            "0x0000000000000000000000000000000000000000000000000000000000008001"
          ],
          "data": "0x00000000000000000000000000000000000000000000000000001270d3ea8840",
          "blockHash": "0x3cdcdfe25403468defd21609e5882e1dff620c5376fbf779d4a30d84f3610774",
          "blockNumber": "0x168",
          "blockTimestamp": "0x83d6541",
          "transactionHash": "0x5871992539643d7225813ad91194f76fcdc9e4dee19d0e580ce9578d3f641a75",
          "transactionIndex": "0x0",
          "logIndex": "0x0",
          "removed": false
        },
        {
          "address": "0x6b828bcb33305478cd7d27eb323f5c5b7b4afdbe",
          "topics": [
            "0xddf252ad1be2c89b69c2b068fc378daa952ba7f163c4a11628f55a4df523b3ef",
            "0x000000000000000000000000588758d8a0ad1162a6294f3c274753137e664ae0",
            "0x00000000000000000000000020f94979f6bcac2467b2e19b4aa7c9a824f9661e",
            "0x0000000000000000000000000000000000000000000000000000000000000008"
          ],
          "data": "0x",
          "blockHash": "0x3cdcdfe25403468defd21609e5882e1dff620c5376fbf779d4a30d84f3610774",
          "blockNumber": "0x168",
          "blockTimestamp": "0x83d6541",
          "transactionHash": "0x5871992539643d7225813ad91194f76fcdc9e4dee19d0e580ce9578d3f641a75",
          "transactionIndex": "0x0",
          "logIndex": "0x1",
          "removed": false
        },
        {
          "address": "0x588758d8a0ad1162a6294f3c274753137e664ae0",
          "topics": [
            "0x4b34672eb24ce98c72f4076298fdbbdcb32840898472c48fb957997ca84f2e57",
            "0x0000000000000000000000006b828bcb33305478cd7d27eb323f5c5b7b4afdbe",
            "0x0000000000000000000000000000000000000000000000000000000000000008",
            "0x00000000000000000000000020f94979f6bcac2467b2e19b4aa7c9a824f9661e"
          ],
          "data": "0x000000000000000000000000000000000000000000000000000000000000000c",
          "blockHash": "0x3cdcdfe25403468defd21609e5882e1dff620c5376fbf779d4a30d84f3610774",
          "blockNumber": "0x168",
          "blockTimestamp": "0x83d6541",
          "transactionHash": "0x5871992539643d7225813ad91194f76fcdc9e4dee19d0e580ce9578d3f641a75",
          "transactionIndex": "0x0",
          "logIndex": "0x2",
          "removed": false
        },
        {
          "address": "0x000000000000000000000000000000000000800a",
          "topics": [
            "0xddf252ad1be2c89b69c2b068fc378daa952ba7f163c4a11628f55a4df523b3ef",
            "0x0000000000000000000000000000000000000000000000000000000000008001",
            "0x00000000000000000000000020f94979f6bcac2467b2e19b4aa7c9a824f9661e"
          ],
          "data": "0x000000000000000000000000000000000000000000000000000007a3c8bea140",
          "blockHash": "0x3cdcdfe25403468defd21609e5882e1dff620c5376fbf779d4a30d84f3610774",
          "blockNumber": "0x168",
          "blockTimestamp": "0x83d6541",
          "transactionHash": "0x5871992539643d7225813ad91194f76fcdc9e4dee19d0e580ce9578d3f641a75",
          "transactionIndex": "0x0",
          "logIndex": "0x3",
          "removed": false
        }
      ],
      "logsBloom": "0x00000000000000000000000000000000000000000000000000000000000000000000000000000000000000000000000000000000000000000000000000000000000000000000000000000000000000000000000000000000000000000000000000000000000000000000000000000000000000000000000000000000000000000000000000000000000000000000000000000000000000000000000000000000000000000000000000000000000000000000000000000000000000000000000000000000000000000000000000000000000000000000000000000000000000000000000000000000000000000000000000000000000000000000000000000000",
      "type": "0x71",
      "transactionHash": "0x5871992539643d7225813ad91194f76fcdc9e4dee19d0e580ce9578d3f641a75",
      "transactionIndex": "0x0",
      "blockHash": "0x3cdcdfe25403468defd21609e5882e1dff620c5376fbf779d4a30d84f3610774",
      "blockNumber": "0x168",
      "gasUsed": "0x40130",
      "effectiveGasPrice": "0x2b275d0",
      "from": "0x20f94979f6bcac2467b2e19b4aa7c9a824f9661e",
      "to": "0x588758d8a0ad1162a6294f3c274753137e664ae0",
      "contractAddress": null,
      "l1BatchNumber": "0xbd",
      "l1BatchTxIndex": null,
      "l2ToL1Logs": []
    },
    {
      "status": "0x1",
      "cumulativeGasUsed": "0x0",
      "logs": [
        {
          "address": "0x000000000000000000000000000000000000800a",
          "topics": [
            "0xddf252ad1be2c89b69c2b068fc378daa952ba7f163c4a11628f55a4df523b3ef",
            "0x00000000000000000000000020f94979f6bcac2467b2e19b4aa7c9a824f9661e",
            "0x0000000000000000000000000000000000000000000000000000000000008001"
          ],
          "data": "0x00000000000000000000000000000000000000000000000000001270d3ea8840",
          "blockHash": "0x0a3aabac033ddfeaeed83b1de2f7fe4b166e3ae7f269d17907a9208849693cd9",
          "blockNumber": "0x16a",
          "blockTimestamp": "0x83d6543",
          "transactionHash": "0xff0e2e0e93d3e078303d470f42924bc0a6b0c08e63035d90250a01be3d9b3001",
          "transactionIndex": "0x0",
          "logIndex": "0x0",
          "removed": false
        },
        {
          "address": "0x6b828bcb33305478cd7d27eb323f5c5b7b4afdbe",
          "topics": [
            "0xddf252ad1be2c89b69c2b068fc378daa952ba7f163c4a11628f55a4df523b3ef",
            "0x000000000000000000000000588758d8a0ad1162a6294f3c274753137e664ae0",
            "0x00000000000000000000000020f94979f6bcac2467b2e19b4aa7c9a824f9661e",
            "0x0000000000000000000000000000000000000000000000000000000000000009"
          ],
          "data": "0x",
          "blockHash": "0x0a3aabac033ddfeaeed83b1de2f7fe4b166e3ae7f269d17907a9208849693cd9",
          "blockNumber": "0x16a",
          "blockTimestamp": "0x83d6543",
          "transactionHash": "0xff0e2e0e93d3e078303d470f42924bc0a6b0c08e63035d90250a01be3d9b3001",
          "transactionIndex": "0x0",
          "logIndex": "0x1",
          "removed": false
        },
        {
          "address": "0x588758d8a0ad1162a6294f3c274753137e664ae0",
          "topics": [
            "0x4b34672eb24ce98c72f4076298fdbbdcb32840898472c48fb957997ca84f2e57",
            "0x0000000000000000000000006b828bcb33305478cd7d27eb323f5c5b7b4afdbe",
            "0x0000000000000000000000000000000000000000000000000000000000000009",
            "0x00000000000000000000000020f94979f6bcac2467b2e19b4aa7c9a824f9661e"
          ],
          "data": "0x000000000000000000000000000000000000000000000000000000000000000d",
          "blockHash": "0x0a3aabac033ddfeaeed83b1de2f7fe4b166e3ae7f269d17907a9208849693cd9",
          "blockNumber": "0x16a",
          "blockTimestamp": "0x83d6543",
          "transactionHash": "0xff0e2e0e93d3e078303d470f42924bc0a6b0c08e63035d90250a01be3d9b3001",
          "transactionIndex": "0x0",
          "logIndex": "0x2",
          "removed": false
        },
        {
          "address": "0x000000000000000000000000000000000000800a",
          "topics": [
            "0xddf252ad1be2c89b69c2b068fc378daa952ba7f163c4a11628f55a4df523b3ef",
            "0x0000000000000000000000000000000000000000000000000000000000008001",
            "0x00000000000000000000000020f94979f6bcac2467b2e19b4aa7c9a824f9661e"
          ],
          "data": "0x000000000000000000000000000000000000000000000000000007a3c8bea140",
          "blockHash": "0x0a3aabac033ddfeaeed83b1de2f7fe4b166e3ae7f269d17907a9208849693cd9",
          "blockNumber": "0x16a",
          "blockTimestamp": "0x83d6543",
          "transactionHash": "0xff0e2e0e93d3e078303d470f42924bc0a6b0c08e63035d90250a01be3d9b3001",
          "transactionIndex": "0x0",
          "logIndex": "0x3",
          "removed": false
        }
      ],
      "logsBloom": "0x00000000000000000000000000000000000000000000000000000000000000000000000000000000000000000000000000000000000000000000000000000000000000000000000000000000000000000000000000000000000000000000000000000000000000000000000000000000000000000000000000000000000000000000000000000000000000000000000000000000000000000000000000000000000000000000000000000000000000000000000000000000000000000000000000000000000000000000000000000000000000000000000000000000000000000000000000000000000000000000000000000000000000000000000000000000",
      "type": "0x71",
      "transactionHash": "0xff0e2e0e93d3e078303d470f42924bc0a6b0c08e63035d90250a01be3d9b3001",
      "transactionIndex": "0x0",
      "blockHash": "0x0a3aabac033ddfeaeed83b1de2f7fe4b166e3ae7f269d17907a9208849693cd9",
      "blockNumber": "0x16a",
      "gasUsed": "0x40130",
      "effectiveGasPrice": "0x2b275d0",
      "from": "0x20f94979f6bcac2467b2e19b4aa7c9a824f9661e",
      "to": "0x588758d8a0ad1162a6294f3c274753137e664ae0",
      "contractAddress": null,
      "l1BatchNumber": "0xbe",
      "l1BatchTxIndex": null,
      "l2ToL1Logs": []
    },
    {
      "status": "0x1",
      "cumulativeGasUsed": "0x0",
      "logs": [
        {
          "address": "0x000000000000000000000000000000000000800a",
          "topics": [
            "0xddf252ad1be2c89b69c2b068fc378daa952ba7f163c4a11628f55a4df523b3ef",
            "0x0000000000000000000000003a31d3c0450d7081be82bff70429bb4cd63b2550",
            "0x0000000000000000000000000000000000000000000000000000000000008001"
          ],
          "data": "0x00000000000000000000000000000000000000000000000000001270d3ea8840",
          "blockHash": "0x5a50258b22cfb59a22b9daea790a47f202a1c5b7201b30eb502cd3b2ba7d3ed5",
          "blockNumber": "0x16c",
          "blockTimestamp": "0x83d6545",
          "transactionHash": "0xe581992b96278766407ea96d87f5d52d582fce411324cb71e8ab17f53c499ed9",
          "transactionIndex": "0x0",
          "logIndex": "0x0",
          "removed": false
        },
        {
          "address": "0x6b828bcb33305478cd7d27eb323f5c5b7b4afdbe",
          "topics": [
            "0xddf252ad1be2c89b69c2b068fc378daa952ba7f163c4a11628f55a4df523b3ef",
            "0x000000000000000000000000588758d8a0ad1162a6294f3c274753137e664ae0",
            "0x0000000000000000000000003a31d3c0450d7081be82bff70429bb4cd63b2550",
            "0x000000000000000000000000000000000000000000000000000000000000000a"
          ],
          "data": "0x",
          "blockHash": "0x5a50258b22cfb59a22b9daea790a47f202a1c5b7201b30eb502cd3b2ba7d3ed5",
          "blockNumber": "0x16c",
          "blockTimestamp": "0x83d6545",
          "transactionHash": "0xe581992b96278766407ea96d87f5d52d582fce411324cb71e8ab17f53c499ed9",
          "transactionIndex": "0x0",
          "logIndex": "0x1",
          "removed": false
        },
        {
          "address": "0x588758d8a0ad1162a6294f3c274753137e664ae0",
          "topics": [
            "0x4b34672eb24ce98c72f4076298fdbbdcb32840898472c48fb957997ca84f2e57",
            "0x0000000000000000000000006b828bcb33305478cd7d27eb323f5c5b7b4afdbe",
            "0x000000000000000000000000000000000000000000000000000000000000000a",
            "0x0000000000000000000000003a31d3c0450d7081be82bff70429bb4cd63b2550"
          ],
          "data": "0x0000000000000000000000000000000000000000000000000000000000000010",
          "blockHash": "0x5a50258b22cfb59a22b9daea790a47f202a1c5b7201b30eb502cd3b2ba7d3ed5",
          "blockNumber": "0x16c",
          "blockTimestamp": "0x83d6545",
          "transactionHash": "0xe581992b96278766407ea96d87f5d52d582fce411324cb71e8ab17f53c499ed9",
          "transactionIndex": "0x0",
          "logIndex": "0x2",
          "removed": false
        },
        {
          "address": "0x000000000000000000000000000000000000800a",
          "topics": [
            "0xddf252ad1be2c89b69c2b068fc378daa952ba7f163c4a11628f55a4df523b3ef",
            "0x0000000000000000000000000000000000000000000000000000000000008001",
            "0x0000000000000000000000003a31d3c0450d7081be82bff70429bb4cd63b2550"
          ],
          "data": "0x000000000000000000000000000000000000000000000000000007a3c8bea140",
          "blockHash": "0x5a50258b22cfb59a22b9daea790a47f202a1c5b7201b30eb502cd3b2ba7d3ed5",
          "blockNumber": "0x16c",
          "blockTimestamp": "0x83d6545",
          "transactionHash": "0xe581992b96278766407ea96d87f5d52d582fce411324cb71e8ab17f53c499ed9",
          "transactionIndex": "0x0",
          "logIndex": "0x3",
          "removed": false
        }
      ],
      "logsBloom": "0x00000000000000000000000000000000000000000000000000000000000000000000000000000000000000000000000000000000000000000000000000000000000000000000000000000000000000000000000000000000000000000000000000000000000000000000000000000000000000000000000000000000000000000000000000000000000000000000000000000000000000000000000000000000000000000000000000000000000000000000000000000000000000000000000000000000000000000000000000000000000000000000000000000000000000000000000000000000000000000000000000000000000000000000000000000000",
      "type": "0x71",
      "transactionHash": "0xe581992b96278766407ea96d87f5d52d582fce411324cb71e8ab17f53c499ed9",
      "transactionIndex": "0x0",
      "blockHash": "0x5a50258b22cfb59a22b9daea790a47f202a1c5b7201b30eb502cd3b2ba7d3ed5",
      "blockNumber": "0x16c",
      "gasUsed": "0x40130",
      "effectiveGasPrice": "0x2b275d0",
      "from": "0x3a31d3c0450d7081be82bff70429bb4cd63b2550",
      "to": "0x588758d8a0ad1162a6294f3c274753137e664ae0",
      "contractAddress": null,
      "l1BatchNumber": "0xbf",
      "l1BatchTxIndex": null,
      "l2ToL1Logs": []
    },
    {
      "status": "0x1",
      "cumulativeGasUsed": "0x0",
      "logs": [
        {
          "address": "0x000000000000000000000000000000000000800a",
          "topics": [
            "0xddf252ad1be2c89b69c2b068fc378daa952ba7f163c4a11628f55a4df523b3ef",
            "0x0000000000000000000000003a31d3c0450d7081be82bff70429bb4cd63b2550",
            "0x0000000000000000000000000000000000000000000000000000000000008001"
          ],
          "data": "0x00000000000000000000000000000000000000000000000000001270d3ea8840",
          "blockHash": "0x6bb3faad4ab7481e3717cee03dfae02ea51d249cf4f9c898f4542148bf8153cd",
          "blockNumber": "0x16e",
          "blockTimestamp": "0x83d6547",
          "transactionHash": "0x46b824c28686529cd1633ca33712c02e9b1331315bde36a65344b400b61de2ed",
          "transactionIndex": "0x0",
          "logIndex": "0x0",
          "removed": false
        },
        {
          "address": "0x6b828bcb33305478cd7d27eb323f5c5b7b4afdbe",
          "topics": [
            "0xddf252ad1be2c89b69c2b068fc378daa952ba7f163c4a11628f55a4df523b3ef",
            "0x000000000000000000000000588758d8a0ad1162a6294f3c274753137e664ae0",
            "0x0000000000000000000000003a31d3c0450d7081be82bff70429bb4cd63b2550",
            "0x000000000000000000000000000000000000000000000000000000000000000b"
          ],
          "data": "0x",
          "blockHash": "0x6bb3faad4ab7481e3717cee03dfae02ea51d249cf4f9c898f4542148bf8153cd",
          "blockNumber": "0x16e",
          "blockTimestamp": "0x83d6547",
          "transactionHash": "0x46b824c28686529cd1633ca33712c02e9b1331315bde36a65344b400b61de2ed",
          "transactionIndex": "0x0",
          "logIndex": "0x1",
          "removed": false
        },
        {
          "address": "0x588758d8a0ad1162a6294f3c274753137e664ae0",
          "topics": [
            "0x4b34672eb24ce98c72f4076298fdbbdcb32840898472c48fb957997ca84f2e57",
            "0x0000000000000000000000006b828bcb33305478cd7d27eb323f5c5b7b4afdbe",
            "0x000000000000000000000000000000000000000000000000000000000000000b",
            "0x0000000000000000000000003a31d3c0450d7081be82bff70429bb4cd63b2550"
          ],
          "data": "0x0000000000000000000000000000000000000000000000000000000000000011",
          "blockHash": "0x6bb3faad4ab7481e3717cee03dfae02ea51d249cf4f9c898f4542148bf8153cd",
          "blockNumber": "0x16e",
          "blockTimestamp": "0x83d6547",
          "transactionHash": "0x46b824c28686529cd1633ca33712c02e9b1331315bde36a65344b400b61de2ed",
          "transactionIndex": "0x0",
          "logIndex": "0x2",
          "removed": false
        },
        {
          "address": "0x000000000000000000000000000000000000800a",
          "topics": [
            "0xddf252ad1be2c89b69c2b068fc378daa952ba7f163c4a11628f55a4df523b3ef",
            "0x0000000000000000000000000000000000000000000000000000000000008001",
            "0x0000000000000000000000003a31d3c0450d7081be82bff70429bb4cd63b2550"
          ],
          "data": "0x000000000000000000000000000000000000000000000000000007a3c8bea140",
          "blockHash": "0x6bb3faad4ab7481e3717cee03dfae02ea51d249cf4f9c898f4542148bf8153cd",
          "blockNumber": "0x16e",
          "blockTimestamp": "0x83d6547",
          "transactionHash": "0x46b824c28686529cd1633ca33712c02e9b1331315bde36a65344b400b61de2ed",
          "transactionIndex": "0x0",
          "logIndex": "0x3",
          "removed": false
        }
      ],
      "logsBloom": "0x00000000000000000000000000000000000000000000000000000000000000000000000000000000000000000000000000000000000000000000000000000000000000000000000000000000000000000000000000000000000000000000000000000000000000000000000000000000000000000000000000000000000000000000000000000000000000000000000000000000000000000000000000000000000000000000000000000000000000000000000000000000000000000000000000000000000000000000000000000000000000000000000000000000000000000000000000000000000000000000000000000000000000000000000000000000",
      "type": "0x71",
      "transactionHash": "0x46b824c28686529cd1633ca33712c02e9b1331315bde36a65344b400b61de2ed",
      "transactionIndex": "0x0",
      "blockHash": "0x6bb3faad4ab7481e3717cee03dfae02ea51d249cf4f9c898f4542148bf8153cd",
      "blockNumber": "0x16e",
      "gasUsed": "0x40130",
      "effectiveGasPrice": "0x2b275d0",
      "from": "0x3a31d3c0450d7081be82bff70429bb4cd63b2550",
      "to": "0x588758d8a0ad1162a6294f3c274753137e664ae0",
      "contractAddress": null,
      "l1BatchNumber": "0xc0",
      "l1BatchTxIndex": null,
      "l2ToL1Logs": []
    },
    {
      "status": "0x1",
      "cumulativeGasUsed": "0x0",
      "logs": [
        {
          "address": "0x000000000000000000000000000000000000800a",
          "topics": [
            "0xddf252ad1be2c89b69c2b068fc378daa952ba7f163c4a11628f55a4df523b3ef",
            "0x0000000000000000000000003a31d3c0450d7081be82bff70429bb4cd63b2550",
            "0x0000000000000000000000000000000000000000000000000000000000008001"
          ],
          "data": "0x00000000000000000000000000000000000000000000000000001270d3ea8840",
          "blockHash": "0x24d56fa7f93c1b717148ecb6aa980342b764ce50d61fbd8c4b22293d90bb0aff",
          "blockNumber": "0x170",
          "blockTimestamp": "0x83d6549",
          "transactionHash": "0xb997f2ab1234946ae2a3c17907023332725b9a56b01d15620d96d57758357c95",
          "transactionIndex": "0x0",
          "logIndex": "0x0",
          "removed": false
        },
        {
          "address": "0x6b828bcb33305478cd7d27eb323f5c5b7b4afdbe",
          "topics": [
            "0xddf252ad1be2c89b69c2b068fc378daa952ba7f163c4a11628f55a4df523b3ef",
            "0x000000000000000000000000588758d8a0ad1162a6294f3c274753137e664ae0",
            "0x0000000000000000000000003a31d3c0450d7081be82bff70429bb4cd63b2550",
            "0x000000000000000000000000000000000000000000000000000000000000000c"
          ],
          "data": "0x",
          "blockHash": "0x24d56fa7f93c1b717148ecb6aa980342b764ce50d61fbd8c4b22293d90bb0aff",
          "blockNumber": "0x170",
          "blockTimestamp": "0x83d6549",
          "transactionHash": "0xb997f2ab1234946ae2a3c17907023332725b9a56b01d15620d96d57758357c95",
          "transactionIndex": "0x0",
          "logIndex": "0x1",
          "removed": false
        },
        {
          "address": "0x588758d8a0ad1162a6294f3c274753137e664ae0",
          "topics": [
            "0x4b34672eb24ce98c72f4076298fdbbdcb32840898472c48fb957997ca84f2e57",
            "0x0000000000000000000000006b828bcb33305478cd7d27eb323f5c5b7b4afdbe",
            "0x000000000000000000000000000000000000000000000000000000000000000c",
            "0x0000000000000000000000003a31d3c0450d7081be82bff70429bb4cd63b2550"
          ],
          "data": "0x0000000000000000000000000000000000000000000000000000000000000012",
          "blockHash": "0x24d56fa7f93c1b717148ecb6aa980342b764ce50d61fbd8c4b22293d90bb0aff",
          "blockNumber": "0x170",
          "blockTimestamp": "0x83d6549",
          "transactionHash": "0xb997f2ab1234946ae2a3c17907023332725b9a56b01d15620d96d57758357c95",
          "transactionIndex": "0x0",
          "logIndex": "0x2",
          "removed": false
        },
        {
          "address": "0x000000000000000000000000000000000000800a",
          "topics": [
            "0xddf252ad1be2c89b69c2b068fc378daa952ba7f163c4a11628f55a4df523b3ef",
            "0x0000000000000000000000000000000000000000000000000000000000008001",
            "0x0000000000000000000000003a31d3c0450d7081be82bff70429bb4cd63b2550"
          ],
          "data": "0x000000000000000000000000000000000000000000000000000007a3c8bea140",
          "blockHash": "0x24d56fa7f93c1b717148ecb6aa980342b764ce50d61fbd8c4b22293d90bb0aff",
          "blockNumber": "0x170",
          "blockTimestamp": "0x83d6549",
          "transactionHash": "0xb997f2ab1234946ae2a3c17907023332725b9a56b01d15620d96d57758357c95",
          "transactionIndex": "0x0",
          "logIndex": "0x3",
          "removed": false
        }
      ],
      "logsBloom": "0x00000000000000000000000000000000000000000000000000000000000000000000000000000000000000000000000000000000000000000000000000000000000000000000000000000000000000000000000000000000000000000000000000000000000000000000000000000000000000000000000000000000000000000000000000000000000000000000000000000000000000000000000000000000000000000000000000000000000000000000000000000000000000000000000000000000000000000000000000000000000000000000000000000000000000000000000000000000000000000000000000000000000000000000000000000000",
      "type": "0x71",
      "transactionHash": "0xb997f2ab1234946ae2a3c17907023332725b9a56b01d15620d96d57758357c95",
      "transactionIndex": "0x0",
      "blockHash": "0x24d56fa7f93c1b717148ecb6aa980342b764ce50d61fbd8c4b22293d90bb0aff",
      "blockNumber": "0x170",
      "gasUsed": "0x40130",
      "effectiveGasPrice": "0x2b275d0",
      "from": "0x3a31d3c0450d7081be82bff70429bb4cd63b2550",
      "to": "0x588758d8a0ad1162a6294f3c274753137e664ae0",
      "contractAddress": null,
      "l1BatchNumber": "0xc1",
      "l1BatchTxIndex": null,
      "l2ToL1Logs": []
    },
    {
      "status": "0x1",
      "cumulativeGasUsed": "0x0",
      "logs": [
        {
          "address": "0x000000000000000000000000000000000000800a",
          "topics": [
            "0xddf252ad1be2c89b69c2b068fc378daa952ba7f163c4a11628f55a4df523b3ef",
            "0x000000000000000000000000e3dc3c1e11d76eee701b2d8f11cf0fffda111a0a",
            "0x0000000000000000000000000000000000000000000000000000000000008001"
          ],
          "data": "0x00000000000000000000000000000000000000000000000000001270d3ea8840",
          "blockHash": "0xfe47cc833f028c03f7225ac14c917b43b0bbed8b0d88df46e809654dbf8fd193",
          "blockNumber": "0x172",
          "blockTimestamp": "0x83d654b",
          "transactionHash": "0xb2a4507eecd6e1a44f1735c012abb51852ba5c2cbd970472d23c2e25e3d2be20",
          "transactionIndex": "0x0",
          "logIndex": "0x0",
          "removed": false
        },
        {
          "address": "0x6b828bcb33305478cd7d27eb323f5c5b7b4afdbe",
          "topics": [
            "0xddf252ad1be2c89b69c2b068fc378daa952ba7f163c4a11628f55a4df523b3ef",
            "0x000000000000000000000000588758d8a0ad1162a6294f3c274753137e664ae0",
            "0x000000000000000000000000e3dc3c1e11d76eee701b2d8f11cf0fffda111a0a",
            "0x000000000000000000000000000000000000000000000000000000000000000d"
          ],
          "data": "0x",
          "blockHash": "0xfe47cc833f028c03f7225ac14c917b43b0bbed8b0d88df46e809654dbf8fd193",
          "blockNumber": "0x172",
          "blockTimestamp": "0x83d654b",
          "transactionHash": "0xb2a4507eecd6e1a44f1735c012abb51852ba5c2cbd970472d23c2e25e3d2be20",
          "transactionIndex": "0x0",
          "logIndex": "0x1",
          "removed": false
        },
        {
          "address": "0x588758d8a0ad1162a6294f3c274753137e664ae0",
          "topics": [
            "0x4b34672eb24ce98c72f4076298fdbbdcb32840898472c48fb957997ca84f2e57",
            "0x0000000000000000000000006b828bcb33305478cd7d27eb323f5c5b7b4afdbe",
            "0x000000000000000000000000000000000000000000000000000000000000000d",
            "0x000000000000000000000000e3dc3c1e11d76eee701b2d8f11cf0fffda111a0a"
          ],
          "data": "0x0000000000000000000000000000000000000000000000000000000000000015",
          "blockHash": "0xfe47cc833f028c03f7225ac14c917b43b0bbed8b0d88df46e809654dbf8fd193",
          "blockNumber": "0x172",
          "blockTimestamp": "0x83d654b",
          "transactionHash": "0xb2a4507eecd6e1a44f1735c012abb51852ba5c2cbd970472d23c2e25e3d2be20",
          "transactionIndex": "0x0",
          "logIndex": "0x2",
          "removed": false
        },
        {
          "address": "0x000000000000000000000000000000000000800a",
          "topics": [
            "0xddf252ad1be2c89b69c2b068fc378daa952ba7f163c4a11628f55a4df523b3ef",
            "0x0000000000000000000000000000000000000000000000000000000000008001",
            "0x000000000000000000000000e3dc3c1e11d76eee701b2d8f11cf0fffda111a0a"
          ],
          "data": "0x000000000000000000000000000000000000000000000000000007a3c8bea140",
          "blockHash": "0xfe47cc833f028c03f7225ac14c917b43b0bbed8b0d88df46e809654dbf8fd193",
          "blockNumber": "0x172",
          "blockTimestamp": "0x83d654b",
          "transactionHash": "0xb2a4507eecd6e1a44f1735c012abb51852ba5c2cbd970472d23c2e25e3d2be20",
          "transactionIndex": "0x0",
          "logIndex": "0x3",
          "removed": false
        }
      ],
      "logsBloom": "0x00000000000000000000000000000000000000000000000000000000000000000000000000000000000000000000000000000000000000000000000000000000000000000000000000000000000000000000000000000000000000000000000000000000000000000000000000000000000000000000000000000000000000000000000000000000000000000000000000000000000000000000000000000000000000000000000000000000000000000000000000000000000000000000000000000000000000000000000000000000000000000000000000000000000000000000000000000000000000000000000000000000000000000000000000000000",
      "type": "0x71",
      "transactionHash": "0xb2a4507eecd6e1a44f1735c012abb51852ba5c2cbd970472d23c2e25e3d2be20",
      "transactionIndex": "0x0",
      "blockHash": "0xfe47cc833f028c03f7225ac14c917b43b0bbed8b0d88df46e809654dbf8fd193",
      "blockNumber": "0x172",
      "gasUsed": "0x40130",
      "effectiveGasPrice": "0x2b275d0",
      "from": "0xe3dc3c1e11d76eee701b2d8f11cf0fffda111a0a",
      "to": "0x588758d8a0ad1162a6294f3c274753137e664ae0",
      "contractAddress": null,
      "l1BatchNumber": "0xc2",
      "l1BatchTxIndex": null,
      "l2ToL1Logs": []
    },
    {
      "status": "0x1",
      "cumulativeGasUsed": "0x0",
      "logs": [
        {
          "address": "0x000000000000000000000000000000000000800a",
          "topics": [
            "0xddf252ad1be2c89b69c2b068fc378daa952ba7f163c4a11628f55a4df523b3ef",
            "0x000000000000000000000000e3dc3c1e11d76eee701b2d8f11cf0fffda111a0a",
            "0x0000000000000000000000000000000000000000000000000000000000008001"
          ],
          "data": "0x00000000000000000000000000000000000000000000000000001270d3ea8840",
          "blockHash": "0x36afa64992e36d59f965a88528dcfd2c9e77ce60bca4f76a1b911832563743e0",
          "blockNumber": "0x174",
          "blockTimestamp": "0x83d654d",
          "transactionHash": "0x728bedc71fd15bb47ac62929da5c4bdfed9887e5b6903c3c24a37ff4efcf4891",
          "transactionIndex": "0x0",
          "logIndex": "0x0",
          "removed": false
        },
        {
          "address": "0x6b828bcb33305478cd7d27eb323f5c5b7b4afdbe",
          "topics": [
            "0xddf252ad1be2c89b69c2b068fc378daa952ba7f163c4a11628f55a4df523b3ef",
            "0x000000000000000000000000588758d8a0ad1162a6294f3c274753137e664ae0",
            "0x000000000000000000000000e3dc3c1e11d76eee701b2d8f11cf0fffda111a0a",
            "0x000000000000000000000000000000000000000000000000000000000000000e"
          ],
          "data": "0x",
          "blockHash": "0x36afa64992e36d59f965a88528dcfd2c9e77ce60bca4f76a1b911832563743e0",
          "blockNumber": "0x174",
          "blockTimestamp": "0x83d654d",
          "transactionHash": "0x728bedc71fd15bb47ac62929da5c4bdfed9887e5b6903c3c24a37ff4efcf4891",
          "transactionIndex": "0x0",
          "logIndex": "0x1",
          "removed": false
        },
        {
          "address": "0x588758d8a0ad1162a6294f3c274753137e664ae0",
          "topics": [
            "0x4b34672eb24ce98c72f4076298fdbbdcb32840898472c48fb957997ca84f2e57",
            "0x0000000000000000000000006b828bcb33305478cd7d27eb323f5c5b7b4afdbe",
            "0x000000000000000000000000000000000000000000000000000000000000000e",
            "0x000000000000000000000000e3dc3c1e11d76eee701b2d8f11cf0fffda111a0a"
          ],
          "data": "0x0000000000000000000000000000000000000000000000000000000000000016",
          "blockHash": "0x36afa64992e36d59f965a88528dcfd2c9e77ce60bca4f76a1b911832563743e0",
          "blockNumber": "0x174",
          "blockTimestamp": "0x83d654d",
          "transactionHash": "0x728bedc71fd15bb47ac62929da5c4bdfed9887e5b6903c3c24a37ff4efcf4891",
          "transactionIndex": "0x0",
          "logIndex": "0x2",
          "removed": false
        },
        {
          "address": "0x000000000000000000000000000000000000800a",
          "topics": [
            "0xddf252ad1be2c89b69c2b068fc378daa952ba7f163c4a11628f55a4df523b3ef",
            "0x0000000000000000000000000000000000000000000000000000000000008001",
            "0x000000000000000000000000e3dc3c1e11d76eee701b2d8f11cf0fffda111a0a"
          ],
          "data": "0x000000000000000000000000000000000000000000000000000007a3c8bea140",
          "blockHash": "0x36afa64992e36d59f965a88528dcfd2c9e77ce60bca4f76a1b911832563743e0",
          "blockNumber": "0x174",
          "blockTimestamp": "0x83d654d",
          "transactionHash": "0x728bedc71fd15bb47ac62929da5c4bdfed9887e5b6903c3c24a37ff4efcf4891",
          "transactionIndex": "0x0",
          "logIndex": "0x3",
          "removed": false
        }
      ],
      "logsBloom": "0x00000000000000000000000000000000000000000000000000000000000000000000000000000000000000000000000000000000000000000000000000000000000000000000000000000000000000000000000000000000000000000000000000000000000000000000000000000000000000000000000000000000000000000000000000000000000000000000000000000000000000000000000000000000000000000000000000000000000000000000000000000000000000000000000000000000000000000000000000000000000000000000000000000000000000000000000000000000000000000000000000000000000000000000000000000000",
      "type": "0x71",
      "transactionHash": "0x728bedc71fd15bb47ac62929da5c4bdfed9887e5b6903c3c24a37ff4efcf4891",
      "transactionIndex": "0x0",
      "blockHash": "0x36afa64992e36d59f965a88528dcfd2c9e77ce60bca4f76a1b911832563743e0",
      "blockNumber": "0x174",
      "gasUsed": "0x40130",
      "effectiveGasPrice": "0x2b275d0",
      "from": "0xe3dc3c1e11d76eee701b2d8f11cf0fffda111a0a",
      "to": "0x588758d8a0ad1162a6294f3c274753137e664ae0",
      "contractAddress": null,
      "l1BatchNumber": "0xc3",
      "l1BatchTxIndex": null,
      "l2ToL1Logs": []
    }
  ],
  "libraries": [],
  "pending": [],
  "returns": {},
  "timestamp": 1736686124,
  "chain": 260,
  "commit": "32a14fc"
}